{
  "_format": "hh-sol-artifact-1",
  "contractName": "RedPacketRandomDemo",
  "sourceName": "contracts/RedPacketRandomDemo.sol",
  "abi": [
    {
      "inputs": [
        {
          "internalType": "uint256",
          "name": "_minAmount",
          "type": "uint256"
        },
        {
          "internalType": "uint256",
          "name": "_maxAmount",
          "type": "uint256"
        }
      ],
      "stateMutability": "nonpayable",
      "type": "constructor"
    },
    {
      "anonymous": false,
      "inputs": [
        {
          "indexed": true,
          "internalType": "address",
          "name": "user",
          "type": "address"
        },
        {
          "indexed": false,
          "internalType": "uint256",
          "name": "amount",
          "type": "uint256"
        },
        {
          "indexed": false,
          "internalType": "uint256",
          "name": "claimIndex",
          "type": "uint256"
        }
      ],
      "name": "Claim",
      "type": "event"
    },
    {
      "anonymous": false,
      "inputs": [
        {
          "indexed": false,
          "internalType": "uint256",
          "name": "minAmount",
          "type": "uint256"
        },
        {
          "indexed": false,
          "internalType": "uint256",
          "name": "maxAmount",
          "type": "uint256"
        }
      ],
      "name": "ConfigUpdated",
      "type": "event"
    },
    {
      "anonymous": false,
      "inputs": [
        {
          "indexed": true,
          "internalType": "address",
          "name": "sender",
          "type": "address"
        },
        {
          "indexed": false,
          "internalType": "uint256",
          "name": "amount",
          "type": "uint256"
        }
      ],
      "name": "Deposit",
      "type": "event"
    },
    {
      "anonymous": false,
      "inputs": [
        {
          "indexed": false,
          "internalType": "uint256",
          "name": "amount",
          "type": "uint256"
        }
      ],
      "name": "EmergencyWithdraw",
      "type": "event"
    },
    {
      "inputs": [],
      "name": "claim",
      "outputs": [],
      "stateMutability": "nonpayable",
      "type": "function"
    },
    {
      "inputs": [
        {
          "internalType": "uint256",
          "name": "times",
          "type": "uint256"
        }
      ],
      "name": "claimBatch",
      "outputs": [],
      "stateMutability": "nonpayable",
      "type": "function"
    },
    {
      "inputs": [
        {
          "internalType": "address",
          "name": "",
          "type": "address"
        }
      ],
      "name": "claimCount",
      "outputs": [
        {
          "internalType": "uint256",
          "name": "",
          "type": "uint256"
        }
      ],
      "stateMutability": "view",
      "type": "function"
    },
    {
      "inputs": [],
      "name": "deposit",
      "outputs": [],
      "stateMutability": "payable",
      "type": "function"
    },
    {
      "inputs": [],
      "name": "emergencyWithdraw",
      "outputs": [],
      "stateMutability": "nonpayable",
      "type": "function"
    },
    {
      "inputs": [],
      "name": "getBalance",
      "outputs": [
        {
          "internalType": "uint256",
          "name": "",
          "type": "uint256"
        }
      ],
      "stateMutability": "view",
      "type": "function"
    },
    {
      "inputs": [
        {
          "internalType": "address",
          "name": "user",
          "type": "address"
        }
      ],
      "name": "getClaimCount",
      "outputs": [
        {
          "internalType": "uint256",
          "name": "",
          "type": "uint256"
        }
      ],
      "stateMutability": "view",
      "type": "function"
    },
    {
      "inputs": [],
      "name": "getStats",
      "outputs": [
        {
          "internalType": "uint256",
          "name": "balance",
          "type": "uint256"
        },
        {
          "internalType": "uint256",
          "name": "minAmount_",
          "type": "uint256"
        },
        {
          "internalType": "uint256",
          "name": "maxAmount_",
          "type": "uint256"
        },
        {
          "internalType": "uint256",
          "name": "totalClaimed_",
          "type": "uint256"
        },
        {
          "internalType": "uint256",
          "name": "totalDistributed_",
          "type": "uint256"
        },
        {
          "internalType": "uint256",
          "name": "remainingPackets",
          "type": "uint256"
        }
      ],
      "stateMutability": "view",
      "type": "function"
    },
    {
      "inputs": [],
      "name": "maxAmount",
      "outputs": [
        {
          "internalType": "uint256",
          "name": "",
          "type": "uint256"
        }
      ],
      "stateMutability": "view",
      "type": "function"
    },
    {
      "inputs": [],
      "name": "minAmount",
      "outputs": [
        {
          "internalType": "uint256",
          "name": "",
          "type": "uint256"
        }
      ],
      "stateMutability": "view",
      "type": "function"
    },
    {
      "inputs": [],
      "name": "owner",
      "outputs": [
        {
          "internalType": "address",
          "name": "",
          "type": "address"
        }
      ],
      "stateMutability": "view",
      "type": "function"
    },
    {
      "inputs": [
        {
          "internalType": "uint256",
          "name": "_min",
          "type": "uint256"
        },
        {
          "internalType": "uint256",
          "name": "_max",
          "type": "uint256"
        }
      ],
      "name": "setAmountRange",
      "outputs": [],
      "stateMutability": "nonpayable",
      "type": "function"
    },
    {
      "inputs": [],
      "name": "totalClaimed",
      "outputs": [
        {
          "internalType": "uint256",
          "name": "",
          "type": "uint256"
        }
      ],
      "stateMutability": "view",
      "type": "function"
    },
    {
      "inputs": [],
      "name": "totalDistributed",
      "outputs": [
        {
          "internalType": "uint256",
          "name": "",
          "type": "uint256"
        }
      ],
      "stateMutability": "view",
      "type": "function"
    },
    {
      "inputs": [
        {
          "internalType": "address",
          "name": "newOwner",
          "type": "address"
        }
      ],
      "name": "transferOwnership",
      "outputs": [],
      "stateMutability": "nonpayable",
      "type": "function"
    },
    {
      "stateMutability": "payable",
      "type": "receive"
    }
  ],
  "bytecode": "0x608060405234801561001057600080fd5b50604051610cb5380380610cb583398101604081905261002f91610057565b600080546001600160a01b03191633178155600192909255600255600381905560045561007b565b6000806040838503121561006a57600080fd5b505080516020909101519092909150565b610c2b8061008a6000396000f3fe6080604052600436106100ec5760003560e01c80639b2cb5d81161008a578063d5fdfe8711610059578063d5fdfe8714610297578063db2e21bc146102cd578063efca2eed146102e2578063f2fde38b146102f857600080fd5b80639b2cb5d814610221578063c59d484714610237578063d0e30db014610279578063d54ad2a11461028157600080fd5b80634e71d92d116100c65780634e71d92d146101915780635f48f393146101a657806369c12cb7146101bc5780638da5cb5b146101e957600080fd5b80630952897b1461012d57806312065fe01461014f5780632d97712f1461017157600080fd5b366101285760405134815233907fe1fffcc4923d04b559f4d29a8bfc6cda04eb5b0d3c460751c2402c5c5cc9109c9060200160405180910390a2005b600080fd5b34801561013957600080fd5b5061014d610148366004610a8d565b610318565b005b34801561015b57600080fd5b50475b6040519081526020015b60405180910390f35b34801561017d57600080fd5b5061014d61018c366004610aaf565b6103de565b34801561019d57600080fd5b5061014d6105f2565b3480156101b257600080fd5b5061015e60025481565b3480156101c857600080fd5b5061015e6101d7366004610ac8565b60056020526000908152604090205481565b3480156101f557600080fd5b50600054610209906001600160a01b031681565b6040516001600160a01b039091168152602001610168565b34801561022d57600080fd5b5061015e60015481565b34801561024357600080fd5b5061024c610755565b604080519687526020870195909552938501929092526060840152608083015260a082015260c001610168565b61014d61078e565b34801561028d57600080fd5b5061015e60035481565b3480156102a357600080fd5b5061015e6102b2366004610ac8565b6001600160a01b031660009081526005602052604090205490565b3480156102d957600080fd5b5061014d61082f565b3480156102ee57600080fd5b5061015e60045481565b34801561030457600080fd5b5061014d610313366004610ac8565b610937565b6000546001600160a01b0316331461034b5760405162461bcd60e51b815260040161034290610af8565b60405180910390fd5b60008211801561035a57508181115b6103965760405162461bcd60e51b815260206004820152600d60248201526c496e76616c69642072616e676560981b6044820152606401610342565b6001829055600281905560408051838152602081018390527f0936b3616d5072fa8f7381ef8e7c35d39bed9ecfb2184e908a56027ad5c0b6bc91015b60405180910390a15050565b6000811180156103ef575060328111155b6104305760405162461bcd60e51b8152602060048201526012602482015271054696d6573206d75737420626520312d35360741b6044820152606401610342565b6001544790610440908390610b32565b81101561048f5760405162461bcd60e51b815260206004820152601e60248201527f496e73756666696369656e742062616c616e636520666f7220626174636800006044820152606401610342565b6000805b838110156104e55760006104a56109cb565b90506104b18385610b4f565b8111156104c5576104c28385610b4f565b90505b6104cf8184610b62565b92505080806104dd90610b75565b915050610493565b503360009081526005602052604081208054859290610505908490610b62565b92505081905550826003600082825461051e9190610b62565b9250508190555080600460008282546105379190610b62565b9091555050604051600090339083908381818185875af1925050503d806000811461057e576040519150601f19603f3d011682016040523d82523d6000602084013e610583565b606091505b50509050806105a45760405162461bcd60e51b815260040161034290610b8e565b33600081815260056020908152604091829020548251868152918201527f34fcbac0073d7c3d388e51312faf357774904998eeb8fca628b9e6f65ee1cbf7910160405180910390a250505050565b600154479081101561063d5760405162461bcd60e51b8152602060048201526014602482015273496e73756666696369656e742062616c616e636560601b6044820152606401610342565b60006106476109cb565b9050818111156106545750805b33600090815260056020526040812080549161066f83610b75565b90915550506003805490600061068483610b75565b9190505550806004600082825461069b9190610b62565b9091555050604051600090339083908381818185875af1925050503d80600081146106e2576040519150601f19603f3d011682016040523d82523d6000602084013e6106e7565b606091505b50509050806107085760405162461bcd60e51b815260040161034290610b8e565b33600081815260056020908152604091829020548251868152918201527f34fcbac0073d7c3d388e51312faf357774904998eeb8fca628b9e6f65ee1cbf7910160405180910390a2505050565b6001546002546003546004544793929190600083156107825760025461077b9087610bcd565b9050610786565b5060005b909192939495565b6000546001600160a01b031633146107b85760405162461bcd60e51b815260040161034290610af8565b600034116107f85760405162461bcd60e51b815260206004820152600d60248201526c09aeae6e840e6cadcc840868cb609b1b6044820152606401610342565b60405134815233907fe1fffcc4923d04b559f4d29a8bfc6cda04eb5b0d3c460751c2402c5c5cc9109c9060200160405180910390a2565b6000546001600160a01b031633146108595760405162461bcd60e51b815260040161034290610af8565b47806108945760405162461bcd60e51b815260206004820152600a6024820152694e6f2062616c616e636560b01b6044820152606401610342565b600080546040516001600160a01b039091169083908381818185875af1925050503d80600081146108e1576040519150601f19603f3d011682016040523d82523d6000602084013e6108e6565b606091505b50509050806109075760405162461bcd60e51b815260040161034290610b8e565b6040518281527f99d7f8b71cfb9126984f7a5eed3a40e64a8959e9b0e442221546fb04ec6a489c906020016103d2565b6000546001600160a01b031633146109615760405162461bcd60e51b815260040161034290610af8565b6001600160a01b0381166109a95760405162461bcd60e51b815260206004820152600f60248201526e496e76616c6964206164647265737360881b6044820152606401610342565b600080546001600160a01b0319166001600160a01b0392909216919091179055565b6000806109d9600143610b4f565b60035433600081815260056020908152604091829020549151610a359540944294939092909101948552602085019390935260609190911b6bffffffffffffffffffffffff191660408401526054830152607482015260940190565b6040516020818303038152906040528051906020012060001c90506000600154600254610a629190610b4f565b610a6d906001610b62565b9050610a798183610be1565b600154610a869190610b62565b9250505090565b60008060408385031215610aa057600080fd5b50508035926020909101359150565b600060208284031215610ac157600080fd5b5035919050565b600060208284031215610ada57600080fd5b81356001600160a01b0381168114610af157600080fd5b9392505050565b6020808252600a908201526927b7363c9037bbb732b960b11b604082015260600190565b634e487b7160e01b600052601160045260246000fd5b8082028115828204841417610b4957610b49610b1c565b92915050565b81810381811115610b4957610b49610b1c565b80820180821115610b4957610b49610b1c565b600060018201610b8757610b87610b1c565b5060010190565b6020808252600f908201526e151c985b9cd9995c8819985a5b1959608a1b604082015260600190565b634e487b7160e01b600052601260045260246000fd5b600082610bdc57610bdc610bb7565b500490565b600082610bf057610bf0610bb7565b50069056fea26469706673582212201c54a02e0413f2fa4764a7e6878e49186b56786fed0ff4e33d15d1b26f31232c64736f6c63430008130033",
  "linkReferences": {},
  "deployedLinkReferences": {}
}