{
  "_format": "hh-sol-artifact-1",
  "contractName": "RedPacketWithPassphrase",
  "sourceName": "contracts/RedPacketWithPassphrase.sol",
  "abi": [
    {
      "inputs": [
        {
          "internalType": "uint256",
          "name": "_minAmount",
          "type": "uint256"
        },
        {
          "internalType": "uint256",
          "name": "_maxAmount",
          "type": "uint256"
        },
        {
          "internalType": "bytes32",
          "name": "_passphraseHash",
          "type": "bytes32"
        }
      ],
      "stateMutability": "nonpayable",
      "type": "constructor"
    },
    {
      "anonymous": false,
      "inputs": [
        {
          "indexed": true,
          "internalType": "address",
          "name": "user",
          "type": "address"
        },
        {
          "indexed": false,
          "internalType": "uint256",
          "name": "amount",
          "type": "uint256"
        },
        {
          "indexed": false,
          "internalType": "uint256",
          "name": "claimIndex",
          "type": "uint256"
        }
      ],
      "name": "Claim",
      "type": "event"
    },
    {
      "anonymous": false,
      "inputs": [
        {
          "indexed": false,
          "internalType": "uint256",
          "name": "minAmount",
          "type": "uint256"
        },
        {
          "indexed": false,
          "internalType": "uint256",
          "name": "maxAmount",
          "type": "uint256"
        }
      ],
      "name": "ConfigUpdated",
      "type": "event"
    },
    {
      "anonymous": false,
      "inputs": [
        {
          "indexed": true,
          "internalType": "address",
          "name": "sender",
          "type": "address"
        },
        {
          "indexed": false,
          "internalType": "uint256",
          "name": "amount",
          "type": "uint256"
        }
      ],
      "name": "Deposit",
      "type": "event"
    },
    {
      "anonymous": false,
      "inputs": [
        {
          "indexed": false,
          "internalType": "uint256",
          "name": "amount",
          "type": "uint256"
        }
      ],
      "name": "EmergencyWithdraw",
      "type": "event"
    },
    {
      "anonymous": false,
      "inputs": [],
      "name": "PassphraseUpdated",
      "type": "event"
    },
    {
      "inputs": [
        {
          "internalType": "string",
          "name": "passphrase",
          "type": "string"
        }
      ],
      "name": "checkPassphrase",
      "outputs": [
        {
          "internalType": "bool",
          "name": "",
          "type": "bool"
        }
      ],
      "stateMutability": "view",
      "type": "function"
    },
    {
      "inputs": [
        {
          "internalType": "string",
          "name": "passphrase",
          "type": "string"
        }
      ],
      "name": "claim",
      "outputs": [],
      "stateMutability": "nonpayable",
      "type": "function"
    },
    {
      "inputs": [
        {
          "internalType": "string",
          "name": "passphrase",
          "type": "string"
        },
        {
          "internalType": "uint256",
          "name": "times",
          "type": "uint256"
        }
      ],
      "name": "claimBatch",
      "outputs": [],
      "stateMutability": "nonpayable",
      "type": "function"
    },
    {
      "inputs": [
        {
          "internalType": "address",
          "name": "",
          "type": "address"
        }
      ],
      "name": "claimCount",
      "outputs": [
        {
          "internalType": "uint256",
          "name": "",
          "type": "uint256"
        }
      ],
      "stateMutability": "view",
      "type": "function"
    },
    {
      "inputs": [],
      "name": "deposit",
      "outputs": [],
      "stateMutability": "payable",
      "type": "function"
    },
    {
      "inputs": [],
      "name": "emergencyWithdraw",
      "outputs": [],
      "stateMutability": "nonpayable",
      "type": "function"
    },
    {
      "inputs": [],
      "name": "getBalance",
      "outputs": [
        {
          "internalType": "uint256",
          "name": "",
          "type": "uint256"
        }
      ],
      "stateMutability": "view",
      "type": "function"
    },
    {
      "inputs": [
        {
          "internalType": "address",
          "name": "user",
          "type": "address"
        }
      ],
      "name": "getClaimCount",
      "outputs": [
        {
          "internalType": "uint256",
          "name": "",
          "type": "uint256"
        }
      ],
      "stateMutability": "view",
      "type": "function"
    },
    {
      "inputs": [],
      "name": "getStats",
      "outputs": [
        {
          "internalType": "uint256",
          "name": "balance",
          "type": "uint256"
        },
        {
          "internalType": "uint256",
          "name": "minAmount_",
          "type": "uint256"
        },
        {
          "internalType": "uint256",
          "name": "maxAmount_",
          "type": "uint256"
        },
        {
          "internalType": "uint256",
          "name": "totalClaimed_",
          "type": "uint256"
        },
        {
          "internalType": "uint256",
          "name": "totalDistributed_",
          "type": "uint256"
        },
        {
          "internalType": "uint256",
          "name": "remainingPackets",
          "type": "uint256"
        }
      ],
      "stateMutability": "view",
      "type": "function"
    },
    {
      "inputs": [],
      "name": "maxAmount",
      "outputs": [
        {
          "internalType": "uint256",
          "name": "",
          "type": "uint256"
        }
      ],
      "stateMutability": "view",
      "type": "function"
    },
    {
      "inputs": [],
      "name": "minAmount",
      "outputs": [
        {
          "internalType": "uint256",
          "name": "",
          "type": "uint256"
        }
      ],
      "stateMutability": "view",
      "type": "function"
    },
    {
      "inputs": [],
      "name": "owner",
      "outputs": [
        {
          "internalType": "address",
          "name": "",
          "type": "address"
        }
      ],
      "stateMutability": "view",
      "type": "function"
    },
    {
      "inputs": [],
      "name": "passphraseHash",
      "outputs": [
        {
          "internalType": "bytes32",
          "name": "",
          "type": "bytes32"
        }
      ],
      "stateMutability": "view",
      "type": "function"
    },
    {
      "inputs": [
        {
          "internalType": "uint256",
          "name": "_min",
          "type": "uint256"
        },
        {
          "internalType": "uint256",
          "name": "_max",
          "type": "uint256"
        }
      ],
      "name": "setAmountRange",
      "outputs": [],
      "stateMutability": "nonpayable",
      "type": "function"
    },
    {
      "inputs": [
        {
          "internalType": "bytes32",
          "name": "_passphraseHash",
          "type": "bytes32"
        }
      ],
      "name": "setPassphrase",
      "outputs": [],
      "stateMutability": "nonpayable",
      "type": "function"
    },
    {
      "inputs": [],
      "name": "totalClaimed",
      "outputs": [
        {
          "internalType": "uint256",
          "name": "",
          "type": "uint256"
        }
      ],
      "stateMutability": "view",
      "type": "function"
    },
    {
      "inputs": [],
      "name": "totalDistributed",
      "outputs": [
        {
          "internalType": "uint256",
          "name": "",
          "type": "uint256"
        }
      ],
      "stateMutability": "view",
      "type": "function"
    },
    {
      "inputs": [
        {
          "internalType": "address",
          "name": "newOwner",
          "type": "address"
        }
      ],
      "name": "transferOwnership",
      "outputs": [],
      "stateMutability": "nonpayable",
      "type": "function"
    },
    {
      "stateMutability": "payable",
      "type": "receive"
    }
  ],
  "bytecode": "0x608060405234801561001057600080fd5b50604051610fa2380380610fa283398101604081905261002f9161005d565b600080546001600160a01b03191633178155600193909355600291909155600355600481905560055561008b565b60008060006060848603121561007257600080fd5b8351925060208401519150604084015190509250925092565b610f088061009a6000396000f3fe60806040526004361061010d5760003560e01c8063c59d484711610095578063da1fa05e11610064578063da1fa05e1461031f578063db2e21bc1461033f578063efca2eed14610354578063f2fde38b1461036a578063f3fe12c91461038a57600080fd5b8063c59d484714610289578063d0e30db0146102cb578063d54ad2a1146102d3578063d5fdfe87146102e957600080fd5b806327d660ca116100dc57806327d660ca146101e25780635f48f393146101f857806369c12cb71461020e5780638da5cb5b1461023b5780639b2cb5d81461027357600080fd5b80630952897b1461014e5780630ce57d5b1461017057806311955034146101a557806312065fe0146101c557600080fd5b366101495760405134815233907fe1fffcc4923d04b559f4d29a8bfc6cda04eb5b0d3c460751c2402c5c5cc9109c9060200160405180910390a2005b600080fd5b34801561015a57600080fd5b5061016e610169366004610c89565b6103aa565b005b34801561017c57600080fd5b5061019061018b366004610cf4565b610470565b60405190151581526020015b60405180910390f35b3480156101b157600080fd5b5061016e6101c0366004610d36565b6104b6565b3480156101d157600080fd5b50475b60405190815260200161019c565b3480156101ee57600080fd5b506101d460035481565b34801561020457600080fd5b506101d460025481565b34801561021a57600080fd5b506101d4610229366004610d4f565b60066020526000908152604090205481565b34801561024757600080fd5b5060005461025b906001600160a01b031681565b6040516001600160a01b03909116815260200161019c565b34801561027f57600080fd5b506101d460015481565b34801561029557600080fd5b5061029e610511565b604080519687526020870195909552938501929092526060840152608083015260a082015260c00161019c565b61016e610547565b3480156102df57600080fd5b506101d460045481565b3480156102f557600080fd5b506101d4610304366004610d4f565b6001600160a01b031660009081526006602052604090205490565b34801561032b57600080fd5b5061016e61033a366004610d7f565b6105e8565b34801561034b57600080fd5b5061016e610808565b34801561036057600080fd5b506101d460055481565b34801561037657600080fd5b5061016e610385366004610d4f565b610910565b34801561039657600080fd5b5061016e6103a5366004610cf4565b6109a4565b6000546001600160a01b031633146103dd5760405162461bcd60e51b81526004016103d490610dcb565b60405180910390fd5b6000821180156103ec57508181115b6104285760405162461bcd60e51b815260206004820152600d60248201526c496e76616c69642072616e676560981b60448201526064016103d4565b6001829055600281905560408051838152602081018390527f0936b3616d5072fa8f7381ef8e7c35d39bed9ecfb2184e908a56027ad5c0b6bc91015b60405180910390a15050565b600354600090158015906104ad57506003548383604051602001610495929190610def565b60405160208183030381529060405280519060200120145b90505b92915050565b6000546001600160a01b031633146104e05760405162461bcd60e51b81526004016103d490610dcb565b60038190556040517f232f0c92ccc132a5cc8d7d6b49273b93dcb14fe4fd55f85f1f447521c9c5e9f790600090a150565b600154600254600454600554479392919060008361053057600061053d565b60025461053d9087610e2b565b9050909192939495565b6000546001600160a01b031633146105715760405162461bcd60e51b81526004016103d490610dcb565b600034116105b15760405162461bcd60e51b815260206004820152600d60248201526c09aeae6e840e6cadcc840868cb609b1b60448201526064016103d4565b60405134815233907fe1fffcc4923d04b559f4d29a8bfc6cda04eb5b0d3c460751c2402c5c5cc9109c9060200160405180910390a2565b6105f28383610b13565b600081118015610603575060328111155b6106445760405162461bcd60e51b8152602060048201526012602482015271054696d6573206d75737420626520312d35360741b60448201526064016103d4565b6001544790610654908390610e3f565b8110156106a35760405162461bcd60e51b815260206004820152601e60248201527f496e73756666696369656e742062616c616e636520666f72206261746368000060448201526064016103d4565b6000805b838110156106f95760006106b9610bc7565b90506106c58385610e56565b8111156106d9576106d68385610e56565b90505b6106e38184610e69565b92505080806106f190610e7c565b9150506106a7565b503360009081526006602052604081208054859290610719908490610e69565b9250508190555082600460008282546107329190610e69565b92505081905550806005600082825461074b9190610e69565b9091555050604051600090339083908381818185875af1925050503d8060008114610792576040519150601f19603f3d011682016040523d82523d6000602084013e610797565b606091505b50509050806107b85760405162461bcd60e51b81526004016103d490610e95565b33600081815260066020908152604091829020548251868152918201527f34fcbac0073d7c3d388e51312faf357774904998eeb8fca628b9e6f65ee1cbf7910160405180910390a2505050505050565b6000546001600160a01b031633146108325760405162461bcd60e51b81526004016103d490610dcb565b478061086d5760405162461bcd60e51b815260206004820152600a6024820152694e6f2062616c616e636560b01b60448201526064016103d4565b600080546040516001600160a01b039091169083908381818185875af1925050503d80600081146108ba576040519150601f19603f3d011682016040523d82523d6000602084013e6108bf565b606091505b50509050806108e05760405162461bcd60e51b81526004016103d490610e95565b6040518281527f99d7f8b71cfb9126984f7a5eed3a40e64a8959e9b0e442221546fb04ec6a489c90602001610464565b6000546001600160a01b0316331461093a5760405162461bcd60e51b81526004016103d490610dcb565b6001600160a01b0381166109825760405162461bcd60e51b815260206004820152600f60248201526e496e76616c6964206164647265737360881b60448201526064016103d4565b600080546001600160a01b0319166001600160a01b0392909216919091179055565b6109ae8282610b13565b60015447908110156109f95760405162461bcd60e51b8152602060048201526014602482015273496e73756666696369656e742062616c616e636560601b60448201526064016103d4565b6000610a03610bc7565b905081811115610a105750805b336000908152600660205260408120805491610a2b83610e7c565b909155505060048054906000610a4083610e7c565b91905055508060056000828254610a579190610e69565b9091555050604051600090339083908381818185875af1925050503d8060008114610a9e576040519150601f19603f3d011682016040523d82523d6000602084013e610aa3565b606091505b5050905080610ac45760405162461bcd60e51b81526004016103d490610e95565b33600081815260066020908152604091829020548251868152918201527f34fcbac0073d7c3d388e51312faf357774904998eeb8fca628b9e6f65ee1cbf7910160405180910390a25050505050565b600354610b575760405162461bcd60e51b815260206004820152601260248201527114185cdcdc1a1c985cd9481b9bdd081cd95d60721b60448201526064016103d4565b6003548282604051602001610b6d929190610def565b6040516020818303038152906040528051906020012014610bc35760405162461bcd60e51b815260206004820152601060248201526f57726f6e67207061737370687261736560801b60448201526064016103d4565b5050565b600080610bd5600143610e56565b60045433600081815260066020908152604091829020549151610c319540944294939092909101948552602085019390935260609190911b6bffffffffffffffffffffffff191660408401526054830152607482015260940190565b6040516020818303038152906040528051906020012060001c90506000600154600254610c5e9190610e56565b610c69906001610e69565b9050610c758183610ebe565b600154610c829190610e69565b9250505090565b60008060408385031215610c9c57600080fd5b50508035926020909101359150565b60008083601f840112610cbd57600080fd5b50813567ffffffffffffffff811115610cd557600080fd5b602083019150836020828501011115610ced57600080fd5b9250929050565b60008060208385031215610d0757600080fd5b823567ffffffffffffffff811115610d1e57600080fd5b610d2a85828601610cab565b90969095509350505050565b600060208284031215610d4857600080fd5b5035919050565b600060208284031215610d6157600080fd5b81356001600160a01b0381168114610d7857600080fd5b9392505050565b600080600060408486031215610d9457600080fd5b833567ffffffffffffffff811115610dab57600080fd5b610db786828701610cab565b909790965060209590950135949350505050565b6020808252600a908201526927b7363c9037bbb732b960b11b604082015260600190565b8183823760009101908152919050565b634e487b7160e01b600052601260045260246000fd5b634e487b7160e01b600052601160045260246000fd5b600082610e3a57610e3a610dff565b500490565b80820281158282048414176104b0576104b0610e15565b818103818111156104b0576104b0610e15565b808201808211156104b0576104b0610e15565b600060018201610e8e57610e8e610e15565b5060010190565b6020808252600f908201526e151c985b9cd9995c8819985a5b1959608a1b604082015260600190565b600082610ecd57610ecd610dff565b50069056fea26469706673582212207dff803c1afd10f7ee08776068c11b587b37b4543657721ffd4dc0ae4c596cbb64736f6c63430008130033",
  "linkReferences": {},
  "deployedLinkReferences": {}
}