{"contracts/RedPacketWithPassphrase.sol":{"RedPacketWithPassphrase":{"abi":[{"inputs":[{"internalType":"uint256","name":"_minAmount","type":"uint256"},{"internalType":"uint256","name":"_maxAmount","type":"uint256"},{"internalType":"bytes32","name":"_passphraseHash","type":"bytes32"}],"stateMutability":"nonpayable","type":"constructor"},{"anonymous":false,"inputs":[{"indexed":true,"internalType":"address","name":"user","type":"address"},{"indexed":false,"internalType":"uint256","name":"amount","type":"uint256"},{"indexed":false,"internalType":"uint256","name":"claimIndex","type":"uint256"}],"name":"Claim","type":"event"},{"anonymous":false,"inputs":[{"indexed":false,"internalType":"uint256","name":"minAmount","type":"uint256"},{"indexed":false,"internalType":"uint256","name":"maxAmount","type":"uint256"}],"name":"ConfigUpdated","type":"event"},{"anonymous":false,"inputs":[{"indexed":true,"internalType":"address","name":"sender","type":"address"},{"indexed":false,"internalType":"uint256","name":"amount","type":"uint256"}],"name":"Deposit","type":"event"},{"anonymous":false,"inputs":[{"indexed":false,"internalType":"uint256","name":"amount","type":"uint256"}],"name":"EmergencyWithdraw","type":"event"},{"anonymous":false,"inputs":[],"name":"PassphraseUpdated","type":"event"},{"inputs":[{"internalType":"string","name":"passphrase","type":"string"}],"name":"checkPassphrase","outputs":[{"internalType":"bool","name":"","type":"bool"}],"stateMutability":"view","type":"function"},{"inputs":[{"internalType":"string","name":"passphrase","type":"string"}],"name":"claim","outputs":[],"stateMutability":"nonpayable","type":"function"},{"inputs":[{"internalType":"string","name":"passphrase","type":"string"},{"internalType":"uint256","name":"times","type":"uint256"}],"name":"claimBatch","outputs":[],"stateMutability":"nonpayable","type":"function"},{"inputs":[{"internalType":"address","name":"","type":"address"}],"name":"claimCount","outputs":[{"internalType":"uint256","name":"","type":"uint256"}],"stateMutability":"view","type":"function"},{"inputs":[],"name":"deposit","outputs":[],"stateMutability":"payable","type":"function"},{"inputs":[],"name":"emergencyWithdraw","outputs":[],"stateMutability":"nonpayable","type":"function"},{"inputs":[],"name":"getBalance","outputs":[{"internalType":"uint256","name":"","type":"uint256"}],"stateMutability":"view","type":"function"},{"inputs":[{"internalType":"address","name":"user","type":"address"}],"name":"getClaimCount","outputs":[{"internalType":"uint256","name":"","type":"uint256"}],"stateMutability":"view","type":"function"},{"inputs":[],"name":"getStats","outputs":[{"internalType":"uint256","name":"balance","type":"uint256"},{"internalType":"uint256","name":"minAmount_","type":"uint256"},{"internalType":"uint256","name":"maxAmount_","type":"uint256"},{"internalType":"uint256","name":"totalClaimed_","type":"uint256"},{"internalType":"uint256","name":"totalDistributed_","type":"uint256"},{"internalType":"uint256","name":"remainingPackets","type":"uint256"}],"stateMutability":"view","type":"function"},{"inputs":[],"name":"maxAmount","outputs":[{"internalType":"uint256","name":"","type":"uint256"}],"stateMutability":"view","type":"function"},{"inputs":[],"name":"minAmount","outputs":[{"internalType":"uint256","name":"","type":"uint256"}],"stateMutability":"view","type":"function"},{"inputs":[],"name":"owner","outputs":[{"internalType":"address","name":"","type":"address"}],"stateMutability":"view","type":"function"},{"inputs":[],"name":"passphraseHash","outputs":[{"internalType":"bytes32","name":"","type":"bytes32"}],"stateMutability":"view","type":"function"},{"inputs":[{"internalType":"uint256","name":"_min","type":"uint256"},{"internalType":"uint256","name":"_max","type":"uint256"}],"name":"setAmountRange","outputs":[],"stateMutability":"nonpayable","type":"function"},{"inputs":[{"internalType":"bytes32","name":"_passphraseHash","type":"bytes32"}],"name":"setPassphrase","outputs":[],"stateMutability":"nonpayable","type":"function"},{"inputs":[],"name":"totalClaimed","outputs":[{"internalType":"uint256","name":"","type":"uint256"}],"stateMutability":"view","type":"function"},{"inputs":[],"name":"totalDistributed","outputs":[{"internalType":"uint256","name":"","type":"uint256"}],"stateMutability":"view","type":"function"},{"inputs":[{"internalType":"address","name":"newOwner","type":"address"}],"name":"transferOwnership","outputs":[],"stateMutability":"nonpayable","type":"function"},{"stateMutability":"payable","type":"receive"}],"evm":{"bytecode":{"linkReferences":{},"object":"608060405234801561001057600080fd5b50604051610fa2380380610fa283398101604081905261002f9161005d565b600080546001600160a01b03191633178155600193909355600291909155600355600481905560055561008b565b60008060006060848603121561007257600080fd5b8351925060208401519150604084015190509250925092565b610f088061009a6000396000f3fe60806040526004361061010d5760003560e01c8063c59d484711610095578063da1fa05e11610064578063da1fa05e1461031f578063db2e21bc1461033f578063efca2eed14610354578063f2fde38b1461036a578063f3fe12c91461038a57600080fd5b8063c59d484714610289578063d0e30db0146102cb578063d54ad2a1146102d3578063d5fdfe87146102e957600080fd5b806327d660ca116100dc57806327d660ca146101e25780635f48f393146101f857806369c12cb71461020e5780638da5cb5b1461023b5780639b2cb5d81461027357600080fd5b80630952897b1461014e5780630ce57d5b1461017057806311955034146101a557806312065fe0146101c557600080fd5b366101495760405134815233907fe1fffcc4923d04b559f4d29a8bfc6cda04eb5b0d3c460751c2402c5c5cc9109c9060200160405180910390a2005b600080fd5b34801561015a57600080fd5b5061016e610169366004610c89565b6103aa565b005b34801561017c57600080fd5b5061019061018b366004610cf4565b610470565b60405190151581526020015b60405180910390f35b3480156101b157600080fd5b5061016e6101c0366004610d36565b6104b6565b3480156101d157600080fd5b50475b60405190815260200161019c565b3480156101ee57600080fd5b506101d460035481565b34801561020457600080fd5b506101d460025481565b34801561021a57600080fd5b506101d4610229366004610d4f565b60066020526000908152604090205481565b34801561024757600080fd5b5060005461025b906001600160a01b031681565b6040516001600160a01b03909116815260200161019c565b34801561027f57600080fd5b506101d460015481565b34801561029557600080fd5b5061029e610511565b604080519687526020870195909552938501929092526060840152608083015260a082015260c00161019c565b61016e610547565b3480156102df57600080fd5b506101d460045481565b3480156102f557600080fd5b506101d4610304366004610d4f565b6001600160a01b031660009081526006602052604090205490565b34801561032b57600080fd5b5061016e61033a366004610d7f565b6105e8565b34801561034b57600080fd5b5061016e610808565b34801561036057600080fd5b506101d460055481565b34801561037657600080fd5b5061016e610385366004610d4f565b610910565b34801561039657600080fd5b5061016e6103a5366004610cf4565b6109a4565b6000546001600160a01b031633146103dd5760405162461bcd60e51b81526004016103d490610dcb565b60405180910390fd5b6000821180156103ec57508181115b6104285760405162461bcd60e51b815260206004820152600d60248201526c496e76616c69642072616e676560981b60448201526064016103d4565b6001829055600281905560408051838152602081018390527f0936b3616d5072fa8f7381ef8e7c35d39bed9ecfb2184e908a56027ad5c0b6bc91015b60405180910390a15050565b600354600090158015906104ad57506003548383604051602001610495929190610def565b60405160208183030381529060405280519060200120145b90505b92915050565b6000546001600160a01b031633146104e05760405162461bcd60e51b81526004016103d490610dcb565b60038190556040517f232f0c92ccc132a5cc8d7d6b49273b93dcb14fe4fd55f85f1f447521c9c5e9f790600090a150565b600154600254600454600554479392919060008361053057600061053d565b60025461053d9087610e2b565b9050909192939495565b6000546001600160a01b031633146105715760405162461bcd60e51b81526004016103d490610dcb565b600034116105b15760405162461bcd60e51b815260206004820152600d60248201526c09aeae6e840e6cadcc840868cb609b1b60448201526064016103d4565b60405134815233907fe1fffcc4923d04b559f4d29a8bfc6cda04eb5b0d3c460751c2402c5c5cc9109c9060200160405180910390a2565b6105f28383610b13565b600081118015610603575060328111155b6106445760405162461bcd60e51b8152602060048201526012602482015271054696d6573206d75737420626520312d35360741b60448201526064016103d4565b6001544790610654908390610e3f565b8110156106a35760405162461bcd60e51b815260206004820152601e60248201527f496e73756666696369656e742062616c616e636520666f72206261746368000060448201526064016103d4565b6000805b838110156106f95760006106b9610bc7565b90506106c58385610e56565b8111156106d9576106d68385610e56565b90505b6106e38184610e69565b92505080806106f190610e7c565b9150506106a7565b503360009081526006602052604081208054859290610719908490610e69565b9250508190555082600460008282546107329190610e69565b92505081905550806005600082825461074b9190610e69565b9091555050604051600090339083908381818185875af1925050503d8060008114610792576040519150601f19603f3d011682016040523d82523d6000602084013e610797565b606091505b50509050806107b85760405162461bcd60e51b81526004016103d490610e95565b33600081815260066020908152604091829020548251868152918201527f34fcbac0073d7c3d388e51312faf357774904998eeb8fca628b9e6f65ee1cbf7910160405180910390a2505050505050565b6000546001600160a01b031633146108325760405162461bcd60e51b81526004016103d490610dcb565b478061086d5760405162461bcd60e51b815260206004820152600a6024820152694e6f2062616c616e636560b01b60448201526064016103d4565b600080546040516001600160a01b039091169083908381818185875af1925050503d80600081146108ba576040519150601f19603f3d011682016040523d82523d6000602084013e6108bf565b606091505b50509050806108e05760405162461bcd60e51b81526004016103d490610e95565b6040518281527f99d7f8b71cfb9126984f7a5eed3a40e64a8959e9b0e442221546fb04ec6a489c90602001610464565b6000546001600160a01b0316331461093a5760405162461bcd60e51b81526004016103d490610dcb565b6001600160a01b0381166109825760405162461bcd60e51b815260206004820152600f60248201526e496e76616c6964206164647265737360881b60448201526064016103d4565b600080546001600160a01b0319166001600160a01b0392909216919091179055565b6109ae8282610b13565b60015447908110156109f95760405162461bcd60e51b8152602060048201526014602482015273496e73756666696369656e742062616c616e636560601b60448201526064016103d4565b6000610a03610bc7565b905081811115610a105750805b336000908152600660205260408120805491610a2b83610e7c565b909155505060048054906000610a4083610e7c565b91905055508060056000828254610a579190610e69565b9091555050604051600090339083908381818185875af1925050503d8060008114610a9e576040519150601f19603f3d011682016040523d82523d6000602084013e610aa3565b606091505b5050905080610ac45760405162461bcd60e51b81526004016103d490610e95565b33600081815260066020908152604091829020548251868152918201527f34fcbac0073d7c3d388e51312faf357774904998eeb8fca628b9e6f65ee1cbf7910160405180910390a25050505050565b600354610b575760405162461bcd60e51b815260206004820152601260248201527114185cdcdc1a1c985cd9481b9bdd081cd95d60721b60448201526064016103d4565b6003548282604051602001610b6d929190610def565b6040516020818303038152906040528051906020012014610bc35760405162461bcd60e51b815260206004820152601060248201526f57726f6e67207061737370687261736560801b60448201526064016103d4565b5050565b600080610bd5600143610e56565b60045433600081815260066020908152604091829020549151610c319540944294939092909101948552602085019390935260609190911b6bffffffffffffffffffffffff191660408401526054830152607482015260940190565b6040516020818303038152906040528051906020012060001c90506000600154600254610c5e9190610e56565b610c69906001610e69565b9050610c758183610ebe565b600154610c829190610e69565b9250505090565b60008060408385031215610c9c57600080fd5b50508035926020909101359150565b60008083601f840112610cbd57600080fd5b50813567ffffffffffffffff811115610cd557600080fd5b602083019150836020828501011115610ced57600080fd5b9250929050565b60008060208385031215610d0757600080fd5b823567ffffffffffffffff811115610d1e57600080fd5b610d2a85828601610cab565b90969095509350505050565b600060208284031215610d4857600080fd5b5035919050565b600060208284031215610d6157600080fd5b81356001600160a01b0381168114610d7857600080fd5b9392505050565b600080600060408486031215610d9457600080fd5b833567ffffffffffffffff811115610dab57600080fd5b610db786828701610cab565b909790965060209590950135949350505050565b6020808252600a908201526927b7363c9037bbb732b960b11b604082015260600190565b8183823760009101908152919050565b634e487b7160e01b600052601260045260246000fd5b634e487b7160e01b600052601160045260246000fd5b600082610e3a57610e3a610dff565b500490565b80820281158282048414176104b0576104b0610e15565b818103818111156104b0576104b0610e15565b808201808211156104b0576104b0610e15565b600060018201610e8e57610e8e610e15565b5060010190565b6020808252600f908201526e151c985b9cd9995c8819985a5b1959608a1b604082015260600190565b600082610ecd57610ecd610dff565b50069056fea26469706673582212207dff803c1afd10f7ee08776068c11b587b37b4543657721ffd4dc0ae4c596cbb64736f6c63430008130033","opcodes":"PUSH1 0x80 PUSH1 0x40 MSTORE CALLVALUE DUP1 ISZERO PUSH2 0x10 JUMPI PUSH1 0x0 DUP1 REVERT JUMPDEST POP PUSH1 0x40 MLOAD PUSH2 0xFA2 CODESIZE SUB DUP1 PUSH2 0xFA2 DUP4 CODECOPY DUP2 ADD PUSH1 0x40 DUP2 SWAP1 MSTORE PUSH2 0x2F SWAP2 PUSH2 0x5D JUMP JUMPDEST PUSH1 0x0 DUP1 SLOAD PUSH1 0x1 PUSH1 0x1 PUSH1 0xA0 SHL SUB NOT AND CALLER OR DUP2 SSTORE PUSH1 0x1 SWAP4 SWAP1 SWAP4 SSTORE PUSH1 0x2 SWAP2 SWAP1 SWAP2 SSTORE PUSH1 0x3 SSTORE PUSH1 0x4 DUP2 SWAP1 SSTORE PUSH1 0x5 SSTORE PUSH2 0x8B JUMP JUMPDEST PUSH1 0x0 DUP1 PUSH1 0x0 PUSH1 0x60 DUP5 DUP7 SUB SLT ISZERO PUSH2 0x72 JUMPI PUSH1 0x0 DUP1 REVERT JUMPDEST DUP4 MLOAD SWAP3 POP PUSH1 0x20 DUP5 ADD MLOAD SWAP2 POP PUSH1 0x40 DUP5 ADD MLOAD SWAP1 POP SWAP3 POP SWAP3 POP SWAP3 JUMP JUMPDEST PUSH2 0xF08 DUP1 PUSH2 0x9A PUSH1 0x0 CODECOPY PUSH1 0x0 RETURN INVALID PUSH1 0x80 PUSH1 0x40 MSTORE PUSH1 0x4 CALLDATASIZE LT PUSH2 0x10D JUMPI PUSH1 0x0 CALLDATALOAD PUSH1 0xE0 SHR DUP1 PUSH4 0xC59D4847 GT PUSH2 0x95 JUMPI DUP1 PUSH4 0xDA1FA05E GT PUSH2 0x64 JUMPI DUP1 PUSH4 0xDA1FA05E EQ PUSH2 0x31F JUMPI DUP1 PUSH4 0xDB2E21BC EQ PUSH2 0x33F JUMPI DUP1 PUSH4 0xEFCA2EED EQ PUSH2 0x354 JUMPI DUP1 PUSH4 0xF2FDE38B EQ PUSH2 0x36A JUMPI DUP1 PUSH4 0xF3FE12C9 EQ PUSH2 0x38A JUMPI PUSH1 0x0 DUP1 REVERT JUMPDEST DUP1 PUSH4 0xC59D4847 EQ PUSH2 0x289 JUMPI DUP1 PUSH4 0xD0E30DB0 EQ PUSH2 0x2CB JUMPI DUP1 PUSH4 0xD54AD2A1 EQ PUSH2 0x2D3 JUMPI DUP1 PUSH4 0xD5FDFE87 EQ PUSH2 0x2E9 JUMPI PUSH1 0x0 DUP1 REVERT JUMPDEST DUP1 PUSH4 0x27D660CA GT PUSH2 0xDC JUMPI DUP1 PUSH4 0x27D660CA EQ PUSH2 0x1E2 JUMPI DUP1 PUSH4 0x5F48F393 EQ PUSH2 0x1F8 JUMPI DUP1 PUSH4 0x69C12CB7 EQ PUSH2 0x20E JUMPI DUP1 PUSH4 0x8DA5CB5B EQ PUSH2 0x23B JUMPI DUP1 PUSH4 0x9B2CB5D8 EQ PUSH2 0x273 JUMPI PUSH1 0x0 DUP1 REVERT JUMPDEST DUP1 PUSH4 0x952897B EQ PUSH2 0x14E JUMPI DUP1 PUSH4 0xCE57D5B EQ PUSH2 0x170 JUMPI DUP1 PUSH4 0x11955034 EQ PUSH2 0x1A5 JUMPI DUP1 PUSH4 0x12065FE0 EQ PUSH2 0x1C5 JUMPI PUSH1 0x0 DUP1 REVERT JUMPDEST CALLDATASIZE PUSH2 0x149 JUMPI PUSH1 0x40 MLOAD CALLVALUE DUP2 MSTORE CALLER SWAP1 PUSH32 0xE1FFFCC4923D04B559F4D29A8BFC6CDA04EB5B0D3C460751C2402C5C5CC9109C SWAP1 PUSH1 0x20 ADD PUSH1 0x40 MLOAD DUP1 SWAP2 SUB SWAP1 LOG2 STOP JUMPDEST PUSH1 0x0 DUP1 REVERT JUMPDEST CALLVALUE DUP1 ISZERO PUSH2 0x15A JUMPI PUSH1 0x0 DUP1 REVERT JUMPDEST POP PUSH2 0x16E PUSH2 0x169 CALLDATASIZE PUSH1 0x4 PUSH2 0xC89 JUMP JUMPDEST PUSH2 0x3AA JUMP JUMPDEST STOP JUMPDEST CALLVALUE DUP1 ISZERO PUSH2 0x17C JUMPI PUSH1 0x0 DUP1 REVERT JUMPDEST POP PUSH2 0x190 PUSH2 0x18B CALLDATASIZE PUSH1 0x4 PUSH2 0xCF4 JUMP JUMPDEST PUSH2 0x470 JUMP JUMPDEST PUSH1 0x40 MLOAD SWAP1 ISZERO ISZERO DUP2 MSTORE PUSH1 0x20 ADD JUMPDEST PUSH1 0x40 MLOAD DUP1 SWAP2 SUB SWAP1 RETURN JUMPDEST CALLVALUE DUP1 ISZERO PUSH2 0x1B1 JUMPI PUSH1 0x0 DUP1 REVERT JUMPDEST POP PUSH2 0x16E PUSH2 0x1C0 CALLDATASIZE PUSH1 0x4 PUSH2 0xD36 JUMP JUMPDEST PUSH2 0x4B6 JUMP JUMPDEST CALLVALUE DUP1 ISZERO PUSH2 0x1D1 JUMPI PUSH1 0x0 DUP1 REVERT JUMPDEST POP SELFBALANCE JUMPDEST PUSH1 0x40 MLOAD SWAP1 DUP2 MSTORE PUSH1 0x20 ADD PUSH2 0x19C JUMP JUMPDEST CALLVALUE DUP1 ISZERO PUSH2 0x1EE JUMPI PUSH1 0x0 DUP1 REVERT JUMPDEST POP PUSH2 0x1D4 PUSH1 0x3 SLOAD DUP2 JUMP JUMPDEST CALLVALUE DUP1 ISZERO PUSH2 0x204 JUMPI PUSH1 0x0 DUP1 REVERT JUMPDEST POP PUSH2 0x1D4 PUSH1 0x2 SLOAD DUP2 JUMP JUMPDEST CALLVALUE DUP1 ISZERO PUSH2 0x21A JUMPI PUSH1 0x0 DUP1 REVERT JUMPDEST POP PUSH2 0x1D4 PUSH2 0x229 CALLDATASIZE PUSH1 0x4 PUSH2 0xD4F JUMP JUMPDEST PUSH1 0x6 PUSH1 0x20 MSTORE PUSH1 0x0 SWAP1 DUP2 MSTORE PUSH1 0x40 SWAP1 KECCAK256 SLOAD DUP2 JUMP JUMPDEST CALLVALUE DUP1 ISZERO PUSH2 0x247 JUMPI PUSH1 0x0 DUP1 REVERT JUMPDEST POP PUSH1 0x0 SLOAD PUSH2 0x25B SWAP1 PUSH1 0x1 PUSH1 0x1 PUSH1 0xA0 SHL SUB AND DUP2 JUMP JUMPDEST PUSH1 0x40 MLOAD PUSH1 0x1 PUSH1 0x1 PUSH1 0xA0 SHL SUB SWAP1 SWAP2 AND DUP2 MSTORE PUSH1 0x20 ADD PUSH2 0x19C JUMP JUMPDEST CALLVALUE DUP1 ISZERO PUSH2 0x27F JUMPI PUSH1 0x0 DUP1 REVERT JUMPDEST POP PUSH2 0x1D4 PUSH1 0x1 SLOAD DUP2 JUMP JUMPDEST CALLVALUE DUP1 ISZERO PUSH2 0x295 JUMPI PUSH1 0x0 DUP1 REVERT JUMPDEST POP PUSH2 0x29E PUSH2 0x511 JUMP JUMPDEST PUSH1 0x40 DUP1 MLOAD SWAP7 DUP8 MSTORE PUSH1 0x20 DUP8 ADD SWAP6 SWAP1 SWAP6 MSTORE SWAP4 DUP6 ADD SWAP3 SWAP1 SWAP3 MSTORE PUSH1 0x60 DUP5 ADD MSTORE PUSH1 0x80 DUP4 ADD MSTORE PUSH1 0xA0 DUP3 ADD MSTORE PUSH1 0xC0 ADD PUSH2 0x19C JUMP JUMPDEST PUSH2 0x16E PUSH2 0x547 JUMP JUMPDEST CALLVALUE DUP1 ISZERO PUSH2 0x2DF JUMPI PUSH1 0x0 DUP1 REVERT JUMPDEST POP PUSH2 0x1D4 PUSH1 0x4 SLOAD DUP2 JUMP JUMPDEST CALLVALUE DUP1 ISZERO PUSH2 0x2F5 JUMPI PUSH1 0x0 DUP1 REVERT JUMPDEST POP PUSH2 0x1D4 PUSH2 0x304 CALLDATASIZE PUSH1 0x4 PUSH2 0xD4F JUMP JUMPDEST PUSH1 0x1 PUSH1 0x1 PUSH1 0xA0 SHL SUB AND PUSH1 0x0 SWAP1 DUP2 MSTORE PUSH1 0x6 PUSH1 0x20 MSTORE PUSH1 0x40 SWAP1 KECCAK256 SLOAD SWAP1 JUMP JUMPDEST CALLVALUE DUP1 ISZERO PUSH2 0x32B JUMPI PUSH1 0x0 DUP1 REVERT JUMPDEST POP PUSH2 0x16E PUSH2 0x33A CALLDATASIZE PUSH1 0x4 PUSH2 0xD7F JUMP JUMPDEST PUSH2 0x5E8 JUMP JUMPDEST CALLVALUE DUP1 ISZERO PUSH2 0x34B JUMPI PUSH1 0x0 DUP1 REVERT JUMPDEST POP PUSH2 0x16E PUSH2 0x808 JUMP JUMPDEST CALLVALUE DUP1 ISZERO PUSH2 0x360 JUMPI PUSH1 0x0 DUP1 REVERT JUMPDEST POP PUSH2 0x1D4 PUSH1 0x5 SLOAD DUP2 JUMP JUMPDEST CALLVALUE DUP1 ISZERO PUSH2 0x376 JUMPI PUSH1 0x0 DUP1 REVERT JUMPDEST POP PUSH2 0x16E PUSH2 0x385 CALLDATASIZE PUSH1 0x4 PUSH2 0xD4F JUMP JUMPDEST PUSH2 0x910 JUMP JUMPDEST CALLVALUE DUP1 ISZERO PUSH2 0x396 JUMPI PUSH1 0x0 DUP1 REVERT JUMPDEST POP PUSH2 0x16E PUSH2 0x3A5 CALLDATASIZE PUSH1 0x4 PUSH2 0xCF4 JUMP JUMPDEST PUSH2 0x9A4 JUMP JUMPDEST PUSH1 0x0 SLOAD PUSH1 0x1 PUSH1 0x1 PUSH1 0xA0 SHL SUB AND CALLER EQ PUSH2 0x3DD JUMPI PUSH1 0x40 MLOAD PUSH3 0x461BCD PUSH1 0xE5 SHL DUP2 MSTORE PUSH1 0x4 ADD PUSH2 0x3D4 SWAP1 PUSH2 0xDCB JUMP JUMPDEST PUSH1 0x40 MLOAD DUP1 SWAP2 SUB SWAP1 REVERT JUMPDEST PUSH1 0x0 DUP3 GT DUP1 ISZERO PUSH2 0x3EC JUMPI POP DUP2 DUP2 GT JUMPDEST PUSH2 0x428 JUMPI PUSH1 0x40 MLOAD PUSH3 0x461BCD PUSH1 0xE5 SHL DUP2 MSTORE PUSH1 0x20 PUSH1 0x4 DUP3 ADD MSTORE PUSH1 0xD PUSH1 0x24 DUP3 ADD MSTORE PUSH13 0x496E76616C69642072616E6765 PUSH1 0x98 SHL PUSH1 0x44 DUP3 ADD MSTORE PUSH1 0x64 ADD PUSH2 0x3D4 JUMP JUMPDEST PUSH1 0x1 DUP3 SWAP1 SSTORE PUSH1 0x2 DUP2 SWAP1 SSTORE PUSH1 0x40 DUP1 MLOAD DUP4 DUP2 MSTORE PUSH1 0x20 DUP2 ADD DUP4 SWAP1 MSTORE PUSH32 0x936B3616D5072FA8F7381EF8E7C35D39BED9ECFB2184E908A56027AD5C0B6BC SWAP2 ADD JUMPDEST PUSH1 0x40 MLOAD DUP1 SWAP2 SUB SWAP1 LOG1 POP POP JUMP JUMPDEST PUSH1 0x3 SLOAD PUSH1 0x0 SWAP1 ISZERO DUP1 ISZERO SWAP1 PUSH2 0x4AD JUMPI POP PUSH1 0x3 SLOAD DUP4 DUP4 PUSH1 0x40 MLOAD PUSH1 0x20 ADD PUSH2 0x495 SWAP3 SWAP2 SWAP1 PUSH2 0xDEF JUMP JUMPDEST PUSH1 0x40 MLOAD PUSH1 0x20 DUP2 DUP4 SUB SUB DUP2 MSTORE SWAP1 PUSH1 0x40 MSTORE DUP1 MLOAD SWAP1 PUSH1 0x20 ADD KECCAK256 EQ JUMPDEST SWAP1 POP JUMPDEST SWAP3 SWAP2 POP POP JUMP JUMPDEST PUSH1 0x0 SLOAD PUSH1 0x1 PUSH1 0x1 PUSH1 0xA0 SHL SUB AND CALLER EQ PUSH2 0x4E0 JUMPI PUSH1 0x40 MLOAD PUSH3 0x461BCD PUSH1 0xE5 SHL DUP2 MSTORE PUSH1 0x4 ADD PUSH2 0x3D4 SWAP1 PUSH2 0xDCB JUMP JUMPDEST PUSH1 0x3 DUP2 SWAP1 SSTORE PUSH1 0x40 MLOAD PUSH32 0x232F0C92CCC132A5CC8D7D6B49273B93DCB14FE4FD55F85F1F447521C9C5E9F7 SWAP1 PUSH1 0x0 SWAP1 LOG1 POP JUMP JUMPDEST PUSH1 0x1 SLOAD PUSH1 0x2 SLOAD PUSH1 0x4 SLOAD PUSH1 0x5 SLOAD SELFBALANCE SWAP4 SWAP3 SWAP2 SWAP1 PUSH1 0x0 DUP4 PUSH2 0x530 JUMPI PUSH1 0x0 PUSH2 0x53D JUMP JUMPDEST PUSH1 0x2 SLOAD PUSH2 0x53D SWAP1 DUP8 PUSH2 0xE2B JUMP JUMPDEST SWAP1 POP SWAP1 SWAP2 SWAP3 SWAP4 SWAP5 SWAP6 JUMP JUMPDEST PUSH1 0x0 SLOAD PUSH1 0x1 PUSH1 0x1 PUSH1 0xA0 SHL SUB AND CALLER EQ PUSH2 0x571 JUMPI PUSH1 0x40 MLOAD PUSH3 0x461BCD PUSH1 0xE5 SHL DUP2 MSTORE PUSH1 0x4 ADD PUSH2 0x3D4 SWAP1 PUSH2 0xDCB JUMP JUMPDEST PUSH1 0x0 CALLVALUE GT PUSH2 0x5B1 JUMPI PUSH1 0x40 MLOAD PUSH3 0x461BCD PUSH1 0xE5 SHL DUP2 MSTORE PUSH1 0x20 PUSH1 0x4 DUP3 ADD MSTORE PUSH1 0xD PUSH1 0x24 DUP3 ADD MSTORE PUSH13 0x9AEAE6E840E6CADCC840868CB PUSH1 0x9B SHL PUSH1 0x44 DUP3 ADD MSTORE PUSH1 0x64 ADD PUSH2 0x3D4 JUMP JUMPDEST PUSH1 0x40 MLOAD CALLVALUE DUP2 MSTORE CALLER SWAP1 PUSH32 0xE1FFFCC4923D04B559F4D29A8BFC6CDA04EB5B0D3C460751C2402C5C5CC9109C SWAP1 PUSH1 0x20 ADD PUSH1 0x40 MLOAD DUP1 SWAP2 SUB SWAP1 LOG2 JUMP JUMPDEST PUSH2 0x5F2 DUP4 DUP4 PUSH2 0xB13 JUMP JUMPDEST PUSH1 0x0 DUP2 GT DUP1 ISZERO PUSH2 0x603 JUMPI POP PUSH1 0x32 DUP2 GT ISZERO JUMPDEST PUSH2 0x644 JUMPI PUSH1 0x40 MLOAD PUSH3 0x461BCD PUSH1 0xE5 SHL DUP2 MSTORE PUSH1 0x20 PUSH1 0x4 DUP3 ADD MSTORE PUSH1 0x12 PUSH1 0x24 DUP3 ADD MSTORE PUSH18 0x54696D6573206D75737420626520312D353 PUSH1 0x74 SHL PUSH1 0x44 DUP3 ADD MSTORE PUSH1 0x64 ADD PUSH2 0x3D4 JUMP JUMPDEST PUSH1 0x1 SLOAD SELFBALANCE SWAP1 PUSH2 0x654 SWAP1 DUP4 SWAP1 PUSH2 0xE3F JUMP JUMPDEST DUP2 LT ISZERO PUSH2 0x6A3 JUMPI PUSH1 0x40 MLOAD PUSH3 0x461BCD PUSH1 0xE5 SHL DUP2 MSTORE PUSH1 0x20 PUSH1 0x4 DUP3 ADD MSTORE PUSH1 0x1E PUSH1 0x24 DUP3 ADD MSTORE PUSH32 0x496E73756666696369656E742062616C616E636520666F722062617463680000 PUSH1 0x44 DUP3 ADD MSTORE PUSH1 0x64 ADD PUSH2 0x3D4 JUMP JUMPDEST PUSH1 0x0 DUP1 JUMPDEST DUP4 DUP2 LT ISZERO PUSH2 0x6F9 JUMPI PUSH1 0x0 PUSH2 0x6B9 PUSH2 0xBC7 JUMP JUMPDEST SWAP1 POP PUSH2 0x6C5 DUP4 DUP6 PUSH2 0xE56 JUMP JUMPDEST DUP2 GT ISZERO PUSH2 0x6D9 JUMPI PUSH2 0x6D6 DUP4 DUP6 PUSH2 0xE56 JUMP JUMPDEST SWAP1 POP JUMPDEST PUSH2 0x6E3 DUP2 DUP5 PUSH2 0xE69 JUMP JUMPDEST SWAP3 POP POP DUP1 DUP1 PUSH2 0x6F1 SWAP1 PUSH2 0xE7C JUMP JUMPDEST SWAP2 POP POP PUSH2 0x6A7 JUMP JUMPDEST POP CALLER PUSH1 0x0 SWAP1 DUP2 MSTORE PUSH1 0x6 PUSH1 0x20 MSTORE PUSH1 0x40 DUP2 KECCAK256 DUP1 SLOAD DUP6 SWAP3 SWAP1 PUSH2 0x719 SWAP1 DUP5 SWAP1 PUSH2 0xE69 JUMP JUMPDEST SWAP3 POP POP DUP2 SWAP1 SSTORE POP DUP3 PUSH1 0x4 PUSH1 0x0 DUP3 DUP3 SLOAD PUSH2 0x732 SWAP2 SWAP1 PUSH2 0xE69 JUMP JUMPDEST SWAP3 POP POP DUP2 SWAP1 SSTORE POP DUP1 PUSH1 0x5 PUSH1 0x0 DUP3 DUP3 SLOAD PUSH2 0x74B SWAP2 SWAP1 PUSH2 0xE69 JUMP JUMPDEST SWAP1 SWAP2 SSTORE POP POP PUSH1 0x40 MLOAD PUSH1 0x0 SWAP1 CALLER SWAP1 DUP4 SWAP1 DUP4 DUP2 DUP2 DUP2 DUP6 DUP8 GAS CALL SWAP3 POP POP POP RETURNDATASIZE DUP1 PUSH1 0x0 DUP2 EQ PUSH2 0x792 JUMPI PUSH1 0x40 MLOAD SWAP2 POP PUSH1 0x1F NOT PUSH1 0x3F RETURNDATASIZE ADD AND DUP3 ADD PUSH1 0x40 MSTORE RETURNDATASIZE DUP3 MSTORE RETURNDATASIZE PUSH1 0x0 PUSH1 0x20 DUP5 ADD RETURNDATACOPY PUSH2 0x797 JUMP JUMPDEST PUSH1 0x60 SWAP2 POP JUMPDEST POP POP SWAP1 POP DUP1 PUSH2 0x7B8 JUMPI PUSH1 0x40 MLOAD PUSH3 0x461BCD PUSH1 0xE5 SHL DUP2 MSTORE PUSH1 0x4 ADD PUSH2 0x3D4 SWAP1 PUSH2 0xE95 JUMP JUMPDEST CALLER PUSH1 0x0 DUP2 DUP2 MSTORE PUSH1 0x6 PUSH1 0x20 SWAP1 DUP2 MSTORE PUSH1 0x40 SWAP2 DUP3 SWAP1 KECCAK256 SLOAD DUP3 MLOAD DUP7 DUP2 MSTORE SWAP2 DUP3 ADD MSTORE PUSH32 0x34FCBAC0073D7C3D388E51312FAF357774904998EEB8FCA628B9E6F65EE1CBF7 SWAP2 ADD PUSH1 0x40 MLOAD DUP1 SWAP2 SUB SWAP1 LOG2 POP POP POP POP POP POP JUMP JUMPDEST PUSH1 0x0 SLOAD PUSH1 0x1 PUSH1 0x1 PUSH1 0xA0 SHL SUB AND CALLER EQ PUSH2 0x832 JUMPI PUSH1 0x40 MLOAD PUSH3 0x461BCD PUSH1 0xE5 SHL DUP2 MSTORE PUSH1 0x4 ADD PUSH2 0x3D4 SWAP1 PUSH2 0xDCB JUMP JUMPDEST SELFBALANCE DUP1 PUSH2 0x86D JUMPI PUSH1 0x40 MLOAD PUSH3 0x461BCD PUSH1 0xE5 SHL DUP2 MSTORE PUSH1 0x20 PUSH1 0x4 DUP3 ADD MSTORE PUSH1 0xA PUSH1 0x24 DUP3 ADD MSTORE PUSH10 0x4E6F2062616C616E6365 PUSH1 0xB0 SHL PUSH1 0x44 DUP3 ADD MSTORE PUSH1 0x64 ADD PUSH2 0x3D4 JUMP JUMPDEST PUSH1 0x0 DUP1 SLOAD PUSH1 0x40 MLOAD PUSH1 0x1 PUSH1 0x1 PUSH1 0xA0 SHL SUB SWAP1 SWAP2 AND SWAP1 DUP4 SWAP1 DUP4 DUP2 DUP2 DUP2 DUP6 DUP8 GAS CALL SWAP3 POP POP POP RETURNDATASIZE DUP1 PUSH1 0x0 DUP2 EQ PUSH2 0x8BA JUMPI PUSH1 0x40 MLOAD SWAP2 POP PUSH1 0x1F NOT PUSH1 0x3F RETURNDATASIZE ADD AND DUP3 ADD PUSH1 0x40 MSTORE RETURNDATASIZE DUP3 MSTORE RETURNDATASIZE PUSH1 0x0 PUSH1 0x20 DUP5 ADD RETURNDATACOPY PUSH2 0x8BF JUMP JUMPDEST PUSH1 0x60 SWAP2 POP JUMPDEST POP POP SWAP1 POP DUP1 PUSH2 0x8E0 JUMPI PUSH1 0x40 MLOAD PUSH3 0x461BCD PUSH1 0xE5 SHL DUP2 MSTORE PUSH1 0x4 ADD PUSH2 0x3D4 SWAP1 PUSH2 0xE95 JUMP JUMPDEST PUSH1 0x40 MLOAD DUP3 DUP2 MSTORE PUSH32 0x99D7F8B71CFB9126984F7A5EED3A40E64A8959E9B0E442221546FB04EC6A489C SWAP1 PUSH1 0x20 ADD PUSH2 0x464 JUMP JUMPDEST PUSH1 0x0 SLOAD PUSH1 0x1 PUSH1 0x1 PUSH1 0xA0 SHL SUB AND CALLER EQ PUSH2 0x93A JUMPI PUSH1 0x40 MLOAD PUSH3 0x461BCD PUSH1 0xE5 SHL DUP2 MSTORE PUSH1 0x4 ADD PUSH2 0x3D4 SWAP1 PUSH2 0xDCB JUMP JUMPDEST PUSH1 0x1 PUSH1 0x1 PUSH1 0xA0 SHL SUB DUP2 AND PUSH2 0x982 JUMPI PUSH1 0x40 MLOAD PUSH3 0x461BCD PUSH1 0xE5 SHL DUP2 MSTORE PUSH1 0x20 PUSH1 0x4 DUP3 ADD MSTORE PUSH1 0xF PUSH1 0x24 DUP3 ADD MSTORE PUSH15 0x496E76616C69642061646472657373 PUSH1 0x88 SHL PUSH1 0x44 DUP3 ADD MSTORE PUSH1 0x64 ADD PUSH2 0x3D4 JUMP JUMPDEST PUSH1 0x0 DUP1 SLOAD PUSH1 0x1 PUSH1 0x1 PUSH1 0xA0 SHL SUB NOT AND PUSH1 0x1 PUSH1 0x1 PUSH1 0xA0 SHL SUB SWAP3 SWAP1 SWAP3 AND SWAP2 SWAP1 SWAP2 OR SWAP1 SSTORE JUMP JUMPDEST PUSH2 0x9AE DUP3 DUP3 PUSH2 0xB13 JUMP JUMPDEST PUSH1 0x1 SLOAD SELFBALANCE SWAP1 DUP2 LT ISZERO PUSH2 0x9F9 JUMPI PUSH1 0x40 MLOAD PUSH3 0x461BCD PUSH1 0xE5 SHL DUP2 MSTORE PUSH1 0x20 PUSH1 0x4 DUP3 ADD MSTORE PUSH1 0x14 PUSH1 0x24 DUP3 ADD MSTORE PUSH20 0x496E73756666696369656E742062616C616E6365 PUSH1 0x60 SHL PUSH1 0x44 DUP3 ADD MSTORE PUSH1 0x64 ADD PUSH2 0x3D4 JUMP JUMPDEST PUSH1 0x0 PUSH2 0xA03 PUSH2 0xBC7 JUMP JUMPDEST SWAP1 POP DUP2 DUP2 GT ISZERO PUSH2 0xA10 JUMPI POP DUP1 JUMPDEST CALLER PUSH1 0x0 SWAP1 DUP2 MSTORE PUSH1 0x6 PUSH1 0x20 MSTORE PUSH1 0x40 DUP2 KECCAK256 DUP1 SLOAD SWAP2 PUSH2 0xA2B DUP4 PUSH2 0xE7C JUMP JUMPDEST SWAP1 SWAP2 SSTORE POP POP PUSH1 0x4 DUP1 SLOAD SWAP1 PUSH1 0x0 PUSH2 0xA40 DUP4 PUSH2 0xE7C JUMP JUMPDEST SWAP2 SWAP1 POP SSTORE POP DUP1 PUSH1 0x5 PUSH1 0x0 DUP3 DUP3 SLOAD PUSH2 0xA57 SWAP2 SWAP1 PUSH2 0xE69 JUMP JUMPDEST SWAP1 SWAP2 SSTORE POP POP PUSH1 0x40 MLOAD PUSH1 0x0 SWAP1 CALLER SWAP1 DUP4 SWAP1 DUP4 DUP2 DUP2 DUP2 DUP6 DUP8 GAS CALL SWAP3 POP POP POP RETURNDATASIZE DUP1 PUSH1 0x0 DUP2 EQ PUSH2 0xA9E JUMPI PUSH1 0x40 MLOAD SWAP2 POP PUSH1 0x1F NOT PUSH1 0x3F RETURNDATASIZE ADD AND DUP3 ADD PUSH1 0x40 MSTORE RETURNDATASIZE DUP3 MSTORE RETURNDATASIZE PUSH1 0x0 PUSH1 0x20 DUP5 ADD RETURNDATACOPY PUSH2 0xAA3 JUMP JUMPDEST PUSH1 0x60 SWAP2 POP JUMPDEST POP POP SWAP1 POP DUP1 PUSH2 0xAC4 JUMPI PUSH1 0x40 MLOAD PUSH3 0x461BCD PUSH1 0xE5 SHL DUP2 MSTORE PUSH1 0x4 ADD PUSH2 0x3D4 SWAP1 PUSH2 0xE95 JUMP JUMPDEST CALLER PUSH1 0x0 DUP2 DUP2 MSTORE PUSH1 0x6 PUSH1 0x20 SWAP1 DUP2 MSTORE PUSH1 0x40 SWAP2 DUP3 SWAP1 KECCAK256 SLOAD DUP3 MLOAD DUP7 DUP2 MSTORE SWAP2 DUP3 ADD MSTORE PUSH32 0x34FCBAC0073D7C3D388E51312FAF357774904998EEB8FCA628B9E6F65EE1CBF7 SWAP2 ADD PUSH1 0x40 MLOAD DUP1 SWAP2 SUB SWAP1 LOG2 POP POP POP POP POP JUMP JUMPDEST PUSH1 0x3 SLOAD PUSH2 0xB57 JUMPI PUSH1 0x40 MLOAD PUSH3 0x461BCD PUSH1 0xE5 SHL DUP2 MSTORE PUSH1 0x20 PUSH1 0x4 DUP3 ADD MSTORE PUSH1 0x12 PUSH1 0x24 DUP3 ADD MSTORE PUSH18 0x14185CDCDC1A1C985CD9481B9BDD081CD95D PUSH1 0x72 SHL PUSH1 0x44 DUP3 ADD MSTORE PUSH1 0x64 ADD PUSH2 0x3D4 JUMP JUMPDEST PUSH1 0x3 SLOAD DUP3 DUP3 PUSH1 0x40 MLOAD PUSH1 0x20 ADD PUSH2 0xB6D SWAP3 SWAP2 SWAP1 PUSH2 0xDEF JUMP JUMPDEST PUSH1 0x40 MLOAD PUSH1 0x20 DUP2 DUP4 SUB SUB DUP2 MSTORE SWAP1 PUSH1 0x40 MSTORE DUP1 MLOAD SWAP1 PUSH1 0x20 ADD KECCAK256 EQ PUSH2 0xBC3 JUMPI PUSH1 0x40 MLOAD PUSH3 0x461BCD PUSH1 0xE5 SHL DUP2 MSTORE PUSH1 0x20 PUSH1 0x4 DUP3 ADD MSTORE PUSH1 0x10 PUSH1 0x24 DUP3 ADD MSTORE PUSH16 0x57726F6E672070617373706872617365 PUSH1 0x80 SHL PUSH1 0x44 DUP3 ADD MSTORE PUSH1 0x64 ADD PUSH2 0x3D4 JUMP JUMPDEST POP POP JUMP JUMPDEST PUSH1 0x0 DUP1 PUSH2 0xBD5 PUSH1 0x1 NUMBER PUSH2 0xE56 JUMP JUMPDEST PUSH1 0x4 SLOAD CALLER PUSH1 0x0 DUP2 DUP2 MSTORE PUSH1 0x6 PUSH1 0x20 SWAP1 DUP2 MSTORE PUSH1 0x40 SWAP2 DUP3 SWAP1 KECCAK256 SLOAD SWAP2 MLOAD PUSH2 0xC31 SWAP6 BLOCKHASH SWAP5 TIMESTAMP SWAP5 SWAP4 SWAP1 SWAP3 SWAP1 SWAP2 ADD SWAP5 DUP6 MSTORE PUSH1 0x20 DUP6 ADD SWAP4 SWAP1 SWAP4 MSTORE PUSH1 0x60 SWAP2 SWAP1 SWAP2 SHL PUSH12 0xFFFFFFFFFFFFFFFFFFFFFFFF NOT AND PUSH1 0x40 DUP5 ADD MSTORE PUSH1 0x54 DUP4 ADD MSTORE PUSH1 0x74 DUP3 ADD MSTORE PUSH1 0x94 ADD SWAP1 JUMP JUMPDEST PUSH1 0x40 MLOAD PUSH1 0x20 DUP2 DUP4 SUB SUB DUP2 MSTORE SWAP1 PUSH1 0x40 MSTORE DUP1 MLOAD SWAP1 PUSH1 0x20 ADD KECCAK256 PUSH1 0x0 SHR SWAP1 POP PUSH1 0x0 PUSH1 0x1 SLOAD PUSH1 0x2 SLOAD PUSH2 0xC5E SWAP2 SWAP1 PUSH2 0xE56 JUMP JUMPDEST PUSH2 0xC69 SWAP1 PUSH1 0x1 PUSH2 0xE69 JUMP JUMPDEST SWAP1 POP PUSH2 0xC75 DUP2 DUP4 PUSH2 0xEBE JUMP JUMPDEST PUSH1 0x1 SLOAD PUSH2 0xC82 SWAP2 SWAP1 PUSH2 0xE69 JUMP JUMPDEST SWAP3 POP POP POP SWAP1 JUMP JUMPDEST PUSH1 0x0 DUP1 PUSH1 0x40 DUP4 DUP6 SUB SLT ISZERO PUSH2 0xC9C JUMPI PUSH1 0x0 DUP1 REVERT JUMPDEST POP POP DUP1 CALLDATALOAD SWAP3 PUSH1 0x20 SWAP1 SWAP2 ADD CALLDATALOAD SWAP2 POP JUMP JUMPDEST PUSH1 0x0 DUP1 DUP4 PUSH1 0x1F DUP5 ADD SLT PUSH2 0xCBD JUMPI PUSH1 0x0 DUP1 REVERT JUMPDEST POP DUP2 CALLDATALOAD PUSH8 0xFFFFFFFFFFFFFFFF DUP2 GT ISZERO PUSH2 0xCD5 JUMPI PUSH1 0x0 DUP1 REVERT JUMPDEST PUSH1 0x20 DUP4 ADD SWAP2 POP DUP4 PUSH1 0x20 DUP3 DUP6 ADD ADD GT ISZERO PUSH2 0xCED JUMPI PUSH1 0x0 DUP1 REVERT JUMPDEST SWAP3 POP SWAP3 SWAP1 POP JUMP JUMPDEST PUSH1 0x0 DUP1 PUSH1 0x20 DUP4 DUP6 SUB SLT ISZERO PUSH2 0xD07 JUMPI PUSH1 0x0 DUP1 REVERT JUMPDEST DUP3 CALLDATALOAD PUSH8 0xFFFFFFFFFFFFFFFF DUP2 GT ISZERO PUSH2 0xD1E JUMPI PUSH1 0x0 DUP1 REVERT JUMPDEST PUSH2 0xD2A DUP6 DUP3 DUP7 ADD PUSH2 0xCAB JUMP JUMPDEST SWAP1 SWAP7 SWAP1 SWAP6 POP SWAP4 POP POP POP POP JUMP JUMPDEST PUSH1 0x0 PUSH1 0x20 DUP3 DUP5 SUB SLT ISZERO PUSH2 0xD48 JUMPI PUSH1 0x0 DUP1 REVERT JUMPDEST POP CALLDATALOAD SWAP2 SWAP1 POP JUMP JUMPDEST PUSH1 0x0 PUSH1 0x20 DUP3 DUP5 SUB SLT ISZERO PUSH2 0xD61 JUMPI PUSH1 0x0 DUP1 REVERT JUMPDEST DUP2 CALLDATALOAD PUSH1 0x1 PUSH1 0x1 PUSH1 0xA0 SHL SUB DUP2 AND DUP2 EQ PUSH2 0xD78 JUMPI PUSH1 0x0 DUP1 REVERT JUMPDEST SWAP4 SWAP3 POP POP POP JUMP JUMPDEST PUSH1 0x0 DUP1 PUSH1 0x0 PUSH1 0x40 DUP5 DUP7 SUB SLT ISZERO PUSH2 0xD94 JUMPI PUSH1 0x0 DUP1 REVERT JUMPDEST DUP4 CALLDATALOAD PUSH8 0xFFFFFFFFFFFFFFFF DUP2 GT ISZERO PUSH2 0xDAB JUMPI PUSH1 0x0 DUP1 REVERT JUMPDEST PUSH2 0xDB7 DUP7 DUP3 DUP8 ADD PUSH2 0xCAB JUMP JUMPDEST SWAP1 SWAP8 SWAP1 SWAP7 POP PUSH1 0x20 SWAP6 SWAP1 SWAP6 ADD CALLDATALOAD SWAP5 SWAP4 POP POP POP POP JUMP JUMPDEST PUSH1 0x20 DUP1 DUP3 MSTORE PUSH1 0xA SWAP1 DUP3 ADD MSTORE PUSH10 0x27B7363C9037BBB732B9 PUSH1 0xB1 SHL PUSH1 0x40 DUP3 ADD MSTORE PUSH1 0x60 ADD SWAP1 JUMP JUMPDEST DUP2 DUP4 DUP3 CALLDATACOPY PUSH1 0x0 SWAP2 ADD SWAP1 DUP2 MSTORE SWAP2 SWAP1 POP JUMP JUMPDEST PUSH4 0x4E487B71 PUSH1 0xE0 SHL PUSH1 0x0 MSTORE PUSH1 0x12 PUSH1 0x4 MSTORE PUSH1 0x24 PUSH1 0x0 REVERT JUMPDEST PUSH4 0x4E487B71 PUSH1 0xE0 SHL PUSH1 0x0 MSTORE PUSH1 0x11 PUSH1 0x4 MSTORE PUSH1 0x24 PUSH1 0x0 REVERT JUMPDEST PUSH1 0x0 DUP3 PUSH2 0xE3A JUMPI PUSH2 0xE3A PUSH2 0xDFF JUMP JUMPDEST POP DIV SWAP1 JUMP JUMPDEST DUP1 DUP3 MUL DUP2 ISZERO DUP3 DUP3 DIV DUP5 EQ OR PUSH2 0x4B0 JUMPI PUSH2 0x4B0 PUSH2 0xE15 JUMP JUMPDEST DUP2 DUP2 SUB DUP2 DUP2 GT ISZERO PUSH2 0x4B0 JUMPI PUSH2 0x4B0 PUSH2 0xE15 JUMP JUMPDEST DUP1 DUP3 ADD DUP1 DUP3 GT ISZERO PUSH2 0x4B0 JUMPI PUSH2 0x4B0 PUSH2 0xE15 JUMP JUMPDEST PUSH1 0x0 PUSH1 0x1 DUP3 ADD PUSH2 0xE8E JUMPI PUSH2 0xE8E PUSH2 0xE15 JUMP JUMPDEST POP PUSH1 0x1 ADD SWAP1 JUMP JUMPDEST PUSH1 0x20 DUP1 DUP3 MSTORE PUSH1 0xF SWAP1 DUP3 ADD MSTORE PUSH15 0x151C985B9CD9995C8819985A5B1959 PUSH1 0x8A SHL PUSH1 0x40 DUP3 ADD MSTORE PUSH1 0x60 ADD SWAP1 JUMP JUMPDEST PUSH1 0x0 DUP3 PUSH2 0xECD JUMPI PUSH2 0xECD PUSH2 0xDFF JUMP JUMPDEST POP MOD SWAP1 JUMP INVALID LOG2 PUSH5 0x6970667358 0x22 SLT KECCAK256 PUSH30 0xFF803C1AFD10F7EE08776068C11B587B37B4543657721FFD4DC0AE4C596C 0xBB PUSH5 0x736F6C6343 STOP ADDMOD SGT STOP CALLER "},"methodIdentifiers":{"checkPassphrase(string)":"0ce57d5b","claim(string)":"f3fe12c9","claimBatch(string,uint256)":"da1fa05e","claimCount(address)":"69c12cb7","deposit()":"d0e30db0","emergencyWithdraw()":"db2e21bc","getBalance()":"12065fe0","getClaimCount(address)":"d5fdfe87","getStats()":"c59d4847","maxAmount()":"5f48f393","minAmount()":"9b2cb5d8","owner()":"8da5cb5b","passphraseHash()":"27d660ca","setAmountRange(uint256,uint256)":"0952897b","setPassphrase(bytes32)":"11955034","totalClaimed()":"d54ad2a1","totalDistributed()":"efca2eed","transferOwnership(address)":"f2fde38b"}}}}}