{
  "_format": "hh-sol-artifact-1",
  "contractName": "RedPacket",
  "sourceName": "contracts/RedPacket.sol",
  "abi": [
    {
      "inputs": [
        {
          "internalType": "uint256",
          "name": "_minAmount",
          "type": "uint256"
        },
        {
          "internalType": "uint256",
          "name": "_maxAmount",
          "type": "uint256"
        }
      ],
      "stateMutability": "nonpayable",
      "type": "constructor"
    },
    {
      "anonymous": false,
      "inputs": [
        {
          "indexed": true,
          "internalType": "address",
          "name": "user",
          "type": "address"
        },
        {
          "indexed": false,
          "internalType": "uint256",
          "name": "amount",
          "type": "uint256"
        }
      ],
      "name": "Claim",
      "type": "event"
    },
    {
      "anonymous": false,
      "inputs": [
        {
          "indexed": false,
          "internalType": "uint256",
          "name": "minAmount",
          "type": "uint256"
        },
        {
          "indexed": false,
          "internalType": "uint256",
          "name": "maxAmount",
          "type": "uint256"
        }
      ],
      "name": "ConfigUpdated",
      "type": "event"
    },
    {
      "anonymous": false,
      "inputs": [
        {
          "indexed": true,
          "internalType": "address",
          "name": "sender",
          "type": "address"
        },
        {
          "indexed": false,
          "internalType": "uint256",
          "name": "amount",
          "type": "uint256"
        }
      ],
      "name": "Deposit",
      "type": "event"
    },
    {
      "anonymous": false,
      "inputs": [
        {
          "indexed": false,
          "internalType": "uint256",
          "name": "amount",
          "type": "uint256"
        }
      ],
      "name": "EmergencyWithdraw",
      "type": "event"
    },
    {
      "inputs": [
        {
          "internalType": "address",
          "name": "user",
          "type": "address"
        }
      ],
      "name": "checkClaimed",
      "outputs": [
        {
          "internalType": "bool",
          "name": "",
          "type": "bool"
        }
      ],
      "stateMutability": "view",
      "type": "function"
    },
    {
      "inputs": [],
      "name": "claim",
      "outputs": [],
      "stateMutability": "nonpayable",
      "type": "function"
    },
    {
      "inputs": [],
      "name": "deposit",
      "outputs": [],
      "stateMutability": "payable",
      "type": "function"
    },
    {
      "inputs": [],
      "name": "emergencyWithdraw",
      "outputs": [],
      "stateMutability": "nonpayable",
      "type": "function"
    },
    {
      "inputs": [],
      "name": "getBalance",
      "outputs": [
        {
          "internalType": "uint256",
          "name": "",
          "type": "uint256"
        }
      ],
      "stateMutability": "view",
      "type": "function"
    },
    {
      "inputs": [],
      "name": "getRemainingPackets",
      "outputs": [
        {
          "internalType": "uint256",
          "name": "",
          "type": "uint256"
        }
      ],
      "stateMutability": "view",
      "type": "function"
    },
    {
      "inputs": [
        {
          "internalType": "address",
          "name": "",
          "type": "address"
        }
      ],
      "name": "hasClaimed",
      "outputs": [
        {
          "internalType": "bool",
          "name": "",
          "type": "bool"
        }
      ],
      "stateMutability": "view",
      "type": "function"
    },
    {
      "inputs": [],
      "name": "maxAmount",
      "outputs": [
        {
          "internalType": "uint256",
          "name": "",
          "type": "uint256"
        }
      ],
      "stateMutability": "view",
      "type": "function"
    },
    {
      "inputs": [],
      "name": "minAmount",
      "outputs": [
        {
          "internalType": "uint256",
          "name": "",
          "type": "uint256"
        }
      ],
      "stateMutability": "view",
      "type": "function"
    },
    {
      "inputs": [],
      "name": "owner",
      "outputs": [
        {
          "internalType": "address",
          "name": "",
          "type": "address"
        }
      ],
      "stateMutability": "view",
      "type": "function"
    },
    {
      "inputs": [],
      "name": "packetCount",
      "outputs": [
        {
          "internalType": "uint256",
          "name": "",
          "type": "uint256"
        }
      ],
      "stateMutability": "view",
      "type": "function"
    },
    {
      "inputs": [
        {
          "internalType": "uint256",
          "name": "_min",
          "type": "uint256"
        },
        {
          "internalType": "uint256",
          "name": "_max",
          "type": "uint256"
        }
      ],
      "name": "setAmountRange",
      "outputs": [],
      "stateMutability": "nonpayable",
      "type": "function"
    },
    {
      "inputs": [],
      "name": "totalBalance",
      "outputs": [
        {
          "internalType": "uint256",
          "name": "",
          "type": "uint256"
        }
      ],
      "stateMutability": "view",
      "type": "function"
    },
    {
      "inputs": [
        {
          "internalType": "address",
          "name": "newOwner",
          "type": "address"
        }
      ],
      "name": "transferOwnership",
      "outputs": [],
      "stateMutability": "nonpayable",
      "type": "function"
    },
    {
      "stateMutability": "payable",
      "type": "receive"
    }
  ],
  "bytecode": "0x608060405234801561001057600080fd5b50604051610a49380380610a4983398101604081905261002f91610052565b600080546001600160a01b03191633178155600192909255600255600455610076565b6000806040838503121561006557600080fd5b505080516020909101519092909150565b6109c4806100856000396000f3fe6080604052600436106100e15760003560e01c80639b2cb5d81161007f578063d4c9a70f11610059578063d4c9a70f1461026a578063db2e21bc146102a3578063e32e4c4d146102b8578063f2fde38b146102cd57600080fd5b80639b2cb5d814610236578063ad7a672f1461024c578063d0e30db01461026257600080fd5b80635f48f393116100bb5780635f48f393146101925780636de56271146101a857806373b2e80e146101be5780638da5cb5b146101fe57600080fd5b80630952897b1461013957806312065fe01461015b5780634e71d92d1461017d57600080fd5b366101345734600360008282546100f89190610895565b909155505060405134815233907fe1fffcc4923d04b559f4d29a8bfc6cda04eb5b0d3c460751c2402c5c5cc9109c9060200160405180910390a2005b600080fd5b34801561014557600080fd5b506101596101543660046108ae565b6102ed565b005b34801561016757600080fd5b50475b6040519081526020015b60405180910390f35b34801561018957600080fd5b506101596103b3565b34801561019e57600080fd5b5061016a60025481565b3480156101b457600080fd5b5061016a60045481565b3480156101ca57600080fd5b506101ee6101d93660046108d0565b60056020526000908152604090205460ff1681565b6040519015158152602001610174565b34801561020a57600080fd5b5060005461021e906001600160a01b031681565b6040516001600160a01b039091168152602001610174565b34801561024257600080fd5b5061016a60015481565b34801561025857600080fd5b5061016a60035481565b61015961054b565b34801561027657600080fd5b506101ee6102853660046108d0565b6001600160a01b031660009081526005602052604090205460ff1690565b3480156102af57600080fd5b50610159610603565b3480156102c457600080fd5b5061016a61072d565b3480156102d957600080fd5b506101596102e83660046108d0565b610751565b6000546001600160a01b031633146103205760405162461bcd60e51b815260040161031790610900565b60405180910390fd5b60008211801561032f57508181115b61036b5760405162461bcd60e51b815260206004820152600d60248201526c496e76616c69642072616e676560981b6044820152606401610317565b6001829055600281905560408051838152602081018390527f0936b3616d5072fa8f7381ef8e7c35d39bed9ecfb2184e908a56027ad5c0b6bc91015b60405180910390a15050565b3360009081526005602052604090205460ff16156104055760405162461bcd60e51b815260206004820152600f60248201526e105b1c9958591e4818db185a5b5959608a1b6044820152606401610317565b6001544710156104445760405162461bcd60e51b815260206004820152600a6024820152694e6f2062616c616e636560b01b6044820152606401610317565b600061044e6107e5565b90504781111561045b5750475b336000908152600560205260408120805460ff19166001179055600480549161048383610924565b9091555050604051600090339083908381818185875af1925050503d80600081146104ca576040519150601f19603f3d011682016040523d82523d6000602084013e6104cf565b606091505b50509050806105125760405162461bcd60e51b815260206004820152600f60248201526e151c985b9cd9995c8819985a5b1959608a1b6044820152606401610317565b60405182815233907f47cee97cb7acd717b3c0aa1435d004cd5b3c8c57d70dbceb4e4458bbd60e39d49060200160405180910390a25050565b6000546001600160a01b031633146105755760405162461bcd60e51b815260040161031790610900565b600034116105b55760405162461bcd60e51b815260206004820152600d60248201526c09aeae6e840e6cadcc840868cb609b1b6044820152606401610317565b34600360008282546105c79190610895565b909155505060405134815233907fe1fffcc4923d04b559f4d29a8bfc6cda04eb5b0d3c460751c2402c5c5cc9109c9060200160405180910390a2565b6000546001600160a01b0316331461062d5760405162461bcd60e51b815260040161031790610900565b47806106685760405162461bcd60e51b815260206004820152600a6024820152694e6f2062616c616e636560b01b6044820152606401610317565b600080546040516001600160a01b039091169083908381818185875af1925050503d80600081146106b5576040519150601f19603f3d011682016040523d82523d6000602084013e6106ba565b606091505b50509050806106fd5760405162461bcd60e51b815260206004820152600f60248201526e151c985b9cd9995c8819985a5b1959608a1b6044820152606401610317565b6040518281527f99d7f8b71cfb9126984f7a5eed3a40e64a8959e9b0e442221546fb04ec6a489c906020016103a7565b600060025460000361073f5750600090565b60025461074c9047610953565b905090565b6000546001600160a01b0316331461077b5760405162461bcd60e51b815260040161031790610900565b6001600160a01b0381166107c35760405162461bcd60e51b815260206004820152600f60248201526e496e76616c6964206164647265737360881b6044820152606401610317565b600080546001600160a01b0319166001600160a01b0392909216919091179055565b6000806107f3600143610967565b6004546040805192406020840152429083015233606090811b6bffffffffffffffffffffffff19169083015260748201526094016040516020818303038152906040528051906020012060001c905060006001546002546108549190610967565b61085f906001610895565b905061086b818361097a565b6001546108789190610895565b9250505090565b634e487b7160e01b600052601160045260246000fd5b808201808211156108a8576108a861087f565b92915050565b600080604083850312156108c157600080fd5b50508035926020909101359150565b6000602082840312156108e257600080fd5b81356001600160a01b03811681146108f957600080fd5b9392505050565b6020808252600a908201526927b7363c9037bbb732b960b11b604082015260600190565b6000600182016109365761093661087f565b5060010190565b634e487b7160e01b600052601260045260246000fd5b6000826109625761096261093d565b500490565b818103818111156108a8576108a861087f565b6000826109895761098961093d565b50069056fea2646970667358221220609a183d02b1fd97e91590315511057547cccaccb3bd49abf24508342851954264736f6c63430008130033",
  "linkReferences": {},
  "deployedLinkReferences": {}
}