{
  "_format": "hh-sol-artifact-1",
  "contractName": "RedPacketDemoMonad",
  "sourceName": "contracts/monad/RedPacketDemoMonad.sol",
  "abi": [
    {
      "inputs": [
        {
          "internalType": "uint256",
          "name": "_minAmount",
          "type": "uint256"
        },
        {
          "internalType": "uint256",
          "name": "_maxAmount",
          "type": "uint256"
        }
      ],
      "stateMutability": "nonpayable",
      "type": "constructor"
    },
    {
      "anonymous": false,
      "inputs": [
        {
          "indexed": true,
          "internalType": "address",
          "name": "user",
          "type": "address"
        },
        {
          "indexed": false,
          "internalType": "uint256",
          "name": "amount",
          "type": "uint256"
        },
        {
          "indexed": false,
          "internalType": "uint256",
          "name": "claimIndex",
          "type": "uint256"
        }
      ],
      "name": "Claim",
      "type": "event"
    },
    {
      "anonymous": false,
      "inputs": [
        {
          "indexed": false,
          "internalType": "uint256",
          "name": "minAmount",
          "type": "uint256"
        },
        {
          "indexed": false,
          "internalType": "uint256",
          "name": "maxAmount",
          "type": "uint256"
        }
      ],
      "name": "ConfigUpdated",
      "type": "event"
    },
    {
      "anonymous": false,
      "inputs": [
        {
          "indexed": true,
          "internalType": "address",
          "name": "sender",
          "type": "address"
        },
        {
          "indexed": false,
          "internalType": "uint256",
          "name": "amount",
          "type": "uint256"
        }
      ],
      "name": "Deposit",
      "type": "event"
    },
    {
      "anonymous": false,
      "inputs": [
        {
          "indexed": false,
          "internalType": "uint256",
          "name": "amount",
          "type": "uint256"
        }
      ],
      "name": "EmergencyWithdraw",
      "type": "event"
    },
    {
      "inputs": [],
      "name": "claim",
      "outputs": [],
      "stateMutability": "nonpayable",
      "type": "function"
    },
    {
      "inputs": [
        {
          "internalType": "uint256",
          "name": "times",
          "type": "uint256"
        }
      ],
      "name": "claimBatch",
      "outputs": [],
      "stateMutability": "nonpayable",
      "type": "function"
    },
    {
      "inputs": [
        {
          "internalType": "address",
          "name": "",
          "type": "address"
        }
      ],
      "name": "claimCount",
      "outputs": [
        {
          "internalType": "uint256",
          "name": "",
          "type": "uint256"
        }
      ],
      "stateMutability": "view",
      "type": "function"
    },
    {
      "inputs": [],
      "name": "deposit",
      "outputs": [],
      "stateMutability": "payable",
      "type": "function"
    },
    {
      "inputs": [],
      "name": "emergencyWithdraw",
      "outputs": [],
      "stateMutability": "nonpayable",
      "type": "function"
    },
    {
      "inputs": [],
      "name": "maxAmount",
      "outputs": [
        {
          "internalType": "uint256",
          "name": "",
          "type": "uint256"
        }
      ],
      "stateMutability": "view",
      "type": "function"
    },
    {
      "inputs": [],
      "name": "minAmount",
      "outputs": [
        {
          "internalType": "uint256",
          "name": "",
          "type": "uint256"
        }
      ],
      "stateMutability": "view",
      "type": "function"
    },
    {
      "inputs": [],
      "name": "owner",
      "outputs": [
        {
          "internalType": "address",
          "name": "",
          "type": "address"
        }
      ],
      "stateMutability": "view",
      "type": "function"
    },
    {
      "inputs": [
        {
          "internalType": "uint256",
          "name": "_min",
          "type": "uint256"
        },
        {
          "internalType": "uint256",
          "name": "_max",
          "type": "uint256"
        }
      ],
      "name": "setAmountRange",
      "outputs": [],
      "stateMutability": "nonpayable",
      "type": "function"
    },
    {
      "inputs": [],
      "name": "totalClaimed",
      "outputs": [
        {
          "internalType": "uint256",
          "name": "",
          "type": "uint256"
        }
      ],
      "stateMutability": "view",
      "type": "function"
    },
    {
      "inputs": [],
      "name": "totalDistributed",
      "outputs": [
        {
          "internalType": "uint256",
          "name": "",
          "type": "uint256"
        }
      ],
      "stateMutability": "view",
      "type": "function"
    },
    {
      "stateMutability": "payable",
      "type": "receive"
    }
  ],
  "bytecode": "0x608060405234801561001057600080fd5b50604051610b54380380610b5483398101604081905261002f916100a9565b60008211801561003f5750818110155b6100815760405162461bcd60e51b815260206004820152600f60248201526e092dcecc2d8d2c840dad2dc5edac2f608b1b604482015260640160405180910390fd5b600080546001600160a01b0319163317815560019290925560025560038190556004556100cd565b600080604083850312156100bc57600080fd5b505080516020909101519092909150565b610a78806100dc6000396000f3fe6080604052600436106100a05760003560e01c80638da5cb5b116100645780638da5cb5b1461018e5780639b2cb5d8146101c6578063d0e30db0146101dc578063d54ad2a1146101e4578063db2e21bc146101fa578063efca2eed1461020f57600080fd5b80630952897b146100e15780632d97712f146101035780634e71d92d146101235780635f48f3931461013857806369c12cb71461016157600080fd5b366100dc5760405134815233907fe1fffcc4923d04b559f4d29a8bfc6cda04eb5b0d3c460751c2402c5c5cc9109c9060200160405180910390a2005b600080fd5b3480156100ed57600080fd5b506101016100fc366004610921565b610225565b005b34801561010f57600080fd5b5061010161011e366004610943565b610305565b34801561012f57600080fd5b5061010161056f565b34801561014457600080fd5b5061014e60025481565b6040519081526020015b60405180910390f35b34801561016d57600080fd5b5061014e61017c36600461095c565b60056020526000908152604090205481565b34801561019a57600080fd5b506000546101ae906001600160a01b031681565b6040516001600160a01b039091168152602001610158565b3480156101d257600080fd5b5061014e60015481565b6101016106d2565b3480156101f057600080fd5b5061014e60035481565b34801561020657600080fd5b50610101610749565b34801561021b57600080fd5b5061014e60045481565b6000546001600160a01b031633146102715760405162461bcd60e51b815260206004820152600a60248201526927b7363c9037bbb732b960b11b60448201526064015b60405180910390fd5b6000821180156102815750818110155b6102bd5760405162461bcd60e51b815260206004820152600d60248201526c496e76616c69642072616e676560981b6044820152606401610268565b6001829055600281905560408051838152602081018390527f0936b3616d5072fa8f7381ef8e7c35d39bed9ecfb2184e908a56027ad5c0b6bc91015b60405180910390a15050565b600081118015610316575060328111155b6103575760405162461bcd60e51b8152602060048201526012602482015271054696d6573206d75737420626520312d35360741b6044820152606401610268565b600154479061036790839061099b565b8110156103b65760405162461bcd60e51b815260206004820152601e60248201527f496e73756666696369656e742062616c616e636520666f7220626174636800006044820152606401610268565b6000805b8381101561041d5760006103cd8261086e565b90506103d983856109b8565b8111156103ed576103ea83856109b8565b90505b6001548110156103fd575061041d565b61040781846109cb565b9250508080610415906109de565b9150506103ba565b50600081116104635760405162461bcd60e51b81526020600482015260126024820152714e6f20616d6f756e7420746f20636c61696d60701b6044820152606401610268565b33600090815260056020526040812080548592906104829084906109cb565b92505081905550826003600082825461049b91906109cb565b9250508190555080600460008282546104b491906109cb565b9091555050604051600090339083908381818185875af1925050503d80600081146104fb576040519150601f19603f3d011682016040523d82523d6000602084013e610500565b606091505b50509050806105215760405162461bcd60e51b8152600401610268906109f7565b33600081815260056020908152604091829020548251868152918201527f34fcbac0073d7c3d388e51312faf357774904998eeb8fca628b9e6f65ee1cbf7910160405180910390a250505050565b60015447908110156105ba5760405162461bcd60e51b8152602060048201526014602482015273496e73756666696369656e742062616c616e636560601b6044820152606401610268565b60006105c4610910565b9050818111156105d15750805b3360009081526005602052604081208054916105ec836109de565b909155505060038054906000610601836109de565b9190505550806004600082825461061891906109cb565b9091555050604051600090339083908381818185875af1925050503d806000811461065f576040519150601f19603f3d011682016040523d82523d6000602084013e610664565b606091505b50509050806106855760405162461bcd60e51b8152600401610268906109f7565b33600081815260056020908152604091829020548251868152918201527f34fcbac0073d7c3d388e51312faf357774904998eeb8fca628b9e6f65ee1cbf7910160405180910390a2505050565b600034116107125760405162461bcd60e51b815260206004820152600d60248201526c26bab9ba1039b2b7321026a7a760991b6044820152606401610268565b60405134815233907fe1fffcc4923d04b559f4d29a8bfc6cda04eb5b0d3c460751c2402c5c5cc9109c9060200160405180910390a2565b6000546001600160a01b031633146107905760405162461bcd60e51b815260206004820152600a60248201526927b7363c9037bbb732b960b11b6044820152606401610268565b47806107cb5760405162461bcd60e51b815260206004820152600a6024820152694e6f2062616c616e636560b01b6044820152606401610268565b600080546040516001600160a01b039091169083908381818185875af1925050503d8060008114610818576040519150601f19603f3d011682016040523d82523d6000602084013e61081d565b606091505b505090508061083e5760405162461bcd60e51b8152600401610268906109f7565b6040518281527f99d7f8b71cfb9126984f7a5eed3a40e64a8959e9b0e442221546fb04ec6a489c906020016102f9565b600080424433600354866040516020016108bc959493929190948552602085019390935260609190911b6bffffffffffffffffffffffff191660408401526054830152607482015260940190565b6040516020818303038152906040528051906020012060001c90506001546002546108e791906109b8565b6108f29060016109cb565b6108fc9082610a20565b60015461090991906109cb565b9392505050565b600061091c600061086e565b905090565b6000806040838503121561093457600080fd5b50508035926020909101359150565b60006020828403121561095557600080fd5b5035919050565b60006020828403121561096e57600080fd5b81356001600160a01b038116811461090957600080fd5b634e487b7160e01b600052601160045260246000fd5b80820281158282048414176109b2576109b2610985565b92915050565b818103818111156109b2576109b2610985565b808201808211156109b2576109b2610985565b6000600182016109f0576109f0610985565b5060010190565b6020808252600f908201526e151c985b9cd9995c8819985a5b1959608a1b604082015260600190565b600082610a3d57634e487b7160e01b600052601260045260246000fd5b50069056fea26469706673582212201248f83d813a907ce640079c3fe00f52a20e11652cfa568f8a31a71a9d1d15a664736f6c63430008130033",
  "linkReferences": {},
  "deployedLinkReferences": {}
}