{
  "_format": "hh-sol-artifact-1",
  "contractName": "RedPacketDemo",
  "sourceName": "contracts/RedPacketDemo.sol",
  "abi": [
    {
      "inputs": [
        {
          "internalType": "uint256",
          "name": "_minAmount",
          "type": "uint256"
        },
        {
          "internalType": "uint256",
          "name": "_maxAmount",
          "type": "uint256"
        }
      ],
      "stateMutability": "nonpayable",
      "type": "constructor"
    },
    {
      "anonymous": false,
      "inputs": [
        {
          "indexed": true,
          "internalType": "address",
          "name": "user",
          "type": "address"
        },
        {
          "indexed": false,
          "internalType": "uint256",
          "name": "amount",
          "type": "uint256"
        },
        {
          "indexed": false,
          "internalType": "uint256",
          "name": "claimIndex",
          "type": "uint256"
        }
      ],
      "name": "Claim",
      "type": "event"
    },
    {
      "anonymous": false,
      "inputs": [
        {
          "indexed": false,
          "internalType": "uint256",
          "name": "minAmount",
          "type": "uint256"
        },
        {
          "indexed": false,
          "internalType": "uint256",
          "name": "maxAmount",
          "type": "uint256"
        }
      ],
      "name": "ConfigUpdated",
      "type": "event"
    },
    {
      "anonymous": false,
      "inputs": [
        {
          "indexed": true,
          "internalType": "address",
          "name": "sender",
          "type": "address"
        },
        {
          "indexed": false,
          "internalType": "uint256",
          "name": "amount",
          "type": "uint256"
        }
      ],
      "name": "Deposit",
      "type": "event"
    },
    {
      "anonymous": false,
      "inputs": [
        {
          "indexed": false,
          "internalType": "uint256",
          "name": "amount",
          "type": "uint256"
        }
      ],
      "name": "EmergencyWithdraw",
      "type": "event"
    },
    {
      "inputs": [],
      "name": "claim",
      "outputs": [],
      "stateMutability": "nonpayable",
      "type": "function"
    },
    {
      "inputs": [
        {
          "internalType": "uint256",
          "name": "times",
          "type": "uint256"
        }
      ],
      "name": "claimBatch",
      "outputs": [],
      "stateMutability": "nonpayable",
      "type": "function"
    },
    {
      "inputs": [
        {
          "internalType": "address",
          "name": "",
          "type": "address"
        }
      ],
      "name": "claimCount",
      "outputs": [
        {
          "internalType": "uint256",
          "name": "",
          "type": "uint256"
        }
      ],
      "stateMutability": "view",
      "type": "function"
    },
    {
      "inputs": [],
      "name": "deposit",
      "outputs": [],
      "stateMutability": "payable",
      "type": "function"
    },
    {
      "inputs": [],
      "name": "emergencyWithdraw",
      "outputs": [],
      "stateMutability": "nonpayable",
      "type": "function"
    },
    {
      "inputs": [],
      "name": "getBalance",
      "outputs": [
        {
          "internalType": "uint256",
          "name": "",
          "type": "uint256"
        }
      ],
      "stateMutability": "view",
      "type": "function"
    },
    {
      "inputs": [
        {
          "internalType": "address",
          "name": "user",
          "type": "address"
        }
      ],
      "name": "getClaimCount",
      "outputs": [
        {
          "internalType": "uint256",
          "name": "",
          "type": "uint256"
        }
      ],
      "stateMutability": "view",
      "type": "function"
    },
    {
      "inputs": [],
      "name": "getRemainingClaims",
      "outputs": [
        {
          "internalType": "uint256",
          "name": "",
          "type": "uint256"
        }
      ],
      "stateMutability": "view",
      "type": "function"
    },
    {
      "inputs": [],
      "name": "getStats",
      "outputs": [
        {
          "internalType": "uint256",
          "name": "balance",
          "type": "uint256"
        },
        {
          "internalType": "uint256",
          "name": "minAmount_",
          "type": "uint256"
        },
        {
          "internalType": "uint256",
          "name": "maxAmount_",
          "type": "uint256"
        },
        {
          "internalType": "uint256",
          "name": "totalClaimed_",
          "type": "uint256"
        },
        {
          "internalType": "uint256",
          "name": "totalDistributed_",
          "type": "uint256"
        }
      ],
      "stateMutability": "view",
      "type": "function"
    },
    {
      "inputs": [],
      "name": "maxAmount",
      "outputs": [
        {
          "internalType": "uint256",
          "name": "",
          "type": "uint256"
        }
      ],
      "stateMutability": "view",
      "type": "function"
    },
    {
      "inputs": [],
      "name": "minAmount",
      "outputs": [
        {
          "internalType": "uint256",
          "name": "",
          "type": "uint256"
        }
      ],
      "stateMutability": "view",
      "type": "function"
    },
    {
      "inputs": [],
      "name": "owner",
      "outputs": [
        {
          "internalType": "address",
          "name": "",
          "type": "address"
        }
      ],
      "stateMutability": "view",
      "type": "function"
    },
    {
      "inputs": [
        {
          "internalType": "uint256",
          "name": "_min",
          "type": "uint256"
        },
        {
          "internalType": "uint256",
          "name": "_max",
          "type": "uint256"
        }
      ],
      "name": "setAmountRange",
      "outputs": [],
      "stateMutability": "nonpayable",
      "type": "function"
    },
    {
      "inputs": [],
      "name": "totalClaimed",
      "outputs": [
        {
          "internalType": "uint256",
          "name": "",
          "type": "uint256"
        }
      ],
      "stateMutability": "view",
      "type": "function"
    },
    {
      "inputs": [],
      "name": "totalDistributed",
      "outputs": [
        {
          "internalType": "uint256",
          "name": "",
          "type": "uint256"
        }
      ],
      "stateMutability": "view",
      "type": "function"
    },
    {
      "inputs": [
        {
          "internalType": "address",
          "name": "newOwner",
          "type": "address"
        }
      ],
      "name": "transferOwnership",
      "outputs": [],
      "stateMutability": "nonpayable",
      "type": "function"
    },
    {
      "stateMutability": "payable",
      "type": "receive"
    }
  ],
  "bytecode": "0x608060405234801561001057600080fd5b50604051610e3c380380610e3c83398101604081905261002f916100a9565b60008211801561003f5750818110155b6100815760405162461bcd60e51b815260206004820152600f60248201526e092dcecc2d8d2c840dad2dc5edac2f608b1b604482015260640160405180910390fd5b600080546001600160a01b0319163317815560019290925560025560038190556004556100cd565b600080604083850312156100bc57600080fd5b505080516020909101519092909150565b610d60806100dc6000396000f3fe6080604052600436106100f75760003560e01c80639b2cb5d81161008a578063d5fdfe8711610059578063d5fdfe87146102bd578063db2e21bc146102f3578063efca2eed14610308578063f2fde38b1461031e57600080fd5b80639b2cb5d814610241578063c59d484714610257578063d0e30db01461029f578063d54ad2a1146102a757600080fd5b80635f48f393116100c65780635f48f393146101b157806369c12cb7146101c75780638da5cb5b146101f4578063953964921461022c57600080fd5b80630952897b1461013857806312065fe01461015a5780632d97712f1461017c5780634e71d92d1461019c57600080fd5b366101335760405134815233907fe1fffcc4923d04b559f4d29a8bfc6cda04eb5b0d3c460751c2402c5c5cc9109c9060200160405180910390a2005b600080fd5b34801561014457600080fd5b50610158610153366004610bc2565b61033e565b005b34801561016657600080fd5b50475b6040519081526020015b60405180910390f35b34801561018857600080fd5b50610158610197366004610be4565b610405565b3480156101a857600080fd5b5061015861066f565b3480156101bd57600080fd5b5061016960025481565b3480156101d357600080fd5b506101696101e2366004610bfd565b60056020526000908152604090205481565b34801561020057600080fd5b50600054610214906001600160a01b031681565b6040516001600160a01b039091168152602001610173565b34801561023857600080fd5b506101696107d2565b34801561024d57600080fd5b5061016960015481565b34801561026357600080fd5b506102776001546002546003546004544794565b604080519586526020860194909452928401919091526060830152608082015260a001610173565b6101586107f6565b3480156102b357600080fd5b5061016960035481565b3480156102c957600080fd5b506101696102d8366004610bfd565b6001600160a01b031660009081526005602052604090205490565b3480156102ff57600080fd5b50610158610897565b34801561031457600080fd5b5061016960045481565b34801561032a57600080fd5b50610158610339366004610bfd565b61099f565b6000546001600160a01b031633146103715760405162461bcd60e51b815260040161036890610c2d565b60405180910390fd5b6000821180156103815750818110155b6103bd5760405162461bcd60e51b815260206004820152600d60248201526c496e76616c69642072616e676560981b6044820152606401610368565b6001829055600281905560408051838152602081018390527f0936b3616d5072fa8f7381ef8e7c35d39bed9ecfb2184e908a56027ad5c0b6bc91015b60405180910390a15050565b600081118015610416575060328111155b6104575760405162461bcd60e51b8152602060048201526012602482015271054696d6573206d75737420626520312d35360741b6044820152606401610368565b6001544790610467908390610c67565b8110156104b65760405162461bcd60e51b815260206004820152601e60248201527f496e73756666696369656e742062616c616e636520666f7220626174636800006044820152606401610368565b6000805b8381101561051d5760006104cd82610a33565b90506104d98385610c84565b8111156104ed576104ea8385610c84565b90505b6001548110156104fd575061051d565b6105078184610c97565b925050808061051590610caa565b9150506104ba565b50600081116105635760405162461bcd60e51b81526020600482015260126024820152714e6f20616d6f756e7420746f20636c61696d60701b6044820152606401610368565b3360009081526005602052604081208054859290610582908490610c97565b92505081905550826003600082825461059b9190610c97565b9250508190555080600460008282546105b49190610c97565b9091555050604051600090339083908381818185875af1925050503d80600081146105fb576040519150601f19603f3d011682016040523d82523d6000602084013e610600565b606091505b50509050806106215760405162461bcd60e51b815260040161036890610cc3565b33600081815260056020908152604091829020548251868152918201527f34fcbac0073d7c3d388e51312faf357774904998eeb8fca628b9e6f65ee1cbf7910160405180910390a250505050565b60015447908110156106ba5760405162461bcd60e51b8152602060048201526014602482015273496e73756666696369656e742062616c616e636560601b6044820152606401610368565b60006106c4610aff565b9050818111156106d15750805b3360009081526005602052604081208054916106ec83610caa565b90915550506003805490600061070183610caa565b919050555080600460008282546107189190610c97565b9091555050604051600090339083908381818185875af1925050503d806000811461075f576040519150601f19603f3d011682016040523d82523d6000602084013e610764565b606091505b50509050806107855760405162461bcd60e51b815260040161036890610cc3565b33600081815260056020908152604091829020548251868152918201527f34fcbac0073d7c3d388e51312faf357774904998eeb8fca628b9e6f65ee1cbf7910160405180910390a2505050565b60006002546000036107e45750600090565b6002546107f19047610d02565b905090565b6000546001600160a01b031633146108205760405162461bcd60e51b815260040161036890610c2d565b600034116108605760405162461bcd60e51b815260206004820152600d60248201526c09aeae6e840e6cadcc840868cb609b1b6044820152606401610368565b60405134815233907fe1fffcc4923d04b559f4d29a8bfc6cda04eb5b0d3c460751c2402c5c5cc9109c9060200160405180910390a2565b6000546001600160a01b031633146108c15760405162461bcd60e51b815260040161036890610c2d565b47806108fc5760405162461bcd60e51b815260206004820152600a6024820152694e6f2062616c616e636560b01b6044820152606401610368565b600080546040516001600160a01b039091169083908381818185875af1925050503d8060008114610949576040519150601f19603f3d011682016040523d82523d6000602084013e61094e565b606091505b505090508061096f5760405162461bcd60e51b815260040161036890610cc3565b6040518281527f99d7f8b71cfb9126984f7a5eed3a40e64a8959e9b0e442221546fb04ec6a489c906020016103f9565b6000546001600160a01b031633146109c95760405162461bcd60e51b815260040161036890610c2d565b6001600160a01b038116610a115760405162461bcd60e51b815260206004820152600f60248201526e496e76616c6964206164647265737360881b6044820152606401610368565b600080546001600160a01b0319166001600160a01b0392909216919091179055565b600060015460025411610a4857505060015490565b6000600154600254610a5a9190610c84565b610a65906001610c97565b90506000610a74600143610c84565b336000818152600560209081526040918290205460035483519540868401524286850152606094851b6bffffffffffffffffffffffff1916948601949094526074850152609484019290925260b48084018890528151808503909101815260d4909301905281519101209050610aea8282610d16565b600154610af79190610c97565b949350505050565b600060015460025411610b13575060015490565b6000600154600254610b259190610c84565b610b30906001610c97565b90506000610b3f600143610c84565b336000818152600560209081526040918290205460035483519540868401524286850152606094851b6bffffffffffffffffffffffff19169486019490945260748501526094808501939093528151808503909301835260b4909301905280519101209050610bae8282610d16565b600154610bbb9190610c97565b9250505090565b60008060408385031215610bd557600080fd5b50508035926020909101359150565b600060208284031215610bf657600080fd5b5035919050565b600060208284031215610c0f57600080fd5b81356001600160a01b0381168114610c2657600080fd5b9392505050565b6020808252600a908201526927b7363c9037bbb732b960b11b604082015260600190565b634e487b7160e01b600052601160045260246000fd5b8082028115828204841417610c7e57610c7e610c51565b92915050565b81810381811115610c7e57610c7e610c51565b80820180821115610c7e57610c7e610c51565b600060018201610cbc57610cbc610c51565b5060010190565b6020808252600f908201526e151c985b9cd9995c8819985a5b1959608a1b604082015260600190565b634e487b7160e01b600052601260045260246000fd5b600082610d1157610d11610cec565b500490565b600082610d2557610d25610cec565b50069056fea2646970667358221220e5623f45fc23cbe6a4f0935a9defc3fc65327354011e5b6a41910f385931cb9e64736f6c63430008130033",
  "linkReferences": {},
  "deployedLinkReferences": {}
}