{
  "_format": "hh-sol-artifact-1",
  "contractName": "RedPacketMonad",
  "sourceName": "contracts/monad/RedPacketMonad.sol",
  "abi": [
    {
      "inputs": [
        {
          "internalType": "uint256",
          "name": "_minAmount",
          "type": "uint256"
        },
        {
          "internalType": "uint256",
          "name": "_maxAmount",
          "type": "uint256"
        }
      ],
      "stateMutability": "nonpayable",
      "type": "constructor"
    },
    {
      "anonymous": false,
      "inputs": [
        {
          "indexed": true,
          "internalType": "address",
          "name": "user",
          "type": "address"
        },
        {
          "indexed": false,
          "internalType": "uint256",
          "name": "amount",
          "type": "uint256"
        }
      ],
      "name": "Claim",
      "type": "event"
    },
    {
      "anonymous": false,
      "inputs": [
        {
          "indexed": false,
          "internalType": "uint256",
          "name": "minAmount",
          "type": "uint256"
        },
        {
          "indexed": false,
          "internalType": "uint256",
          "name": "maxAmount",
          "type": "uint256"
        }
      ],
      "name": "ConfigUpdated",
      "type": "event"
    },
    {
      "anonymous": false,
      "inputs": [
        {
          "indexed": true,
          "internalType": "address",
          "name": "sender",
          "type": "address"
        },
        {
          "indexed": false,
          "internalType": "uint256",
          "name": "amount",
          "type": "uint256"
        }
      ],
      "name": "Deposit",
      "type": "event"
    },
    {
      "anonymous": false,
      "inputs": [
        {
          "indexed": false,
          "internalType": "uint256",
          "name": "amount",
          "type": "uint256"
        }
      ],
      "name": "EmergencyWithdraw",
      "type": "event"
    },
    {
      "inputs": [],
      "name": "claim",
      "outputs": [],
      "stateMutability": "nonpayable",
      "type": "function"
    },
    {
      "inputs": [],
      "name": "deposit",
      "outputs": [],
      "stateMutability": "payable",
      "type": "function"
    },
    {
      "inputs": [],
      "name": "emergencyWithdraw",
      "outputs": [],
      "stateMutability": "nonpayable",
      "type": "function"
    },
    {
      "inputs": [
        {
          "internalType": "address",
          "name": "",
          "type": "address"
        }
      ],
      "name": "hasClaimed",
      "outputs": [
        {
          "internalType": "bool",
          "name": "",
          "type": "bool"
        }
      ],
      "stateMutability": "view",
      "type": "function"
    },
    {
      "inputs": [],
      "name": "maxAmount",
      "outputs": [
        {
          "internalType": "uint256",
          "name": "",
          "type": "uint256"
        }
      ],
      "stateMutability": "view",
      "type": "function"
    },
    {
      "inputs": [],
      "name": "minAmount",
      "outputs": [
        {
          "internalType": "uint256",
          "name": "",
          "type": "uint256"
        }
      ],
      "stateMutability": "view",
      "type": "function"
    },
    {
      "inputs": [],
      "name": "owner",
      "outputs": [
        {
          "internalType": "address",
          "name": "",
          "type": "address"
        }
      ],
      "stateMutability": "view",
      "type": "function"
    },
    {
      "inputs": [],
      "name": "packetCount",
      "outputs": [
        {
          "internalType": "uint256",
          "name": "",
          "type": "uint256"
        }
      ],
      "stateMutability": "view",
      "type": "function"
    },
    {
      "inputs": [
        {
          "internalType": "uint256",
          "name": "_min",
          "type": "uint256"
        },
        {
          "internalType": "uint256",
          "name": "_max",
          "type": "uint256"
        }
      ],
      "name": "setAmountRange",
      "outputs": [],
      "stateMutability": "nonpayable",
      "type": "function"
    },
    {
      "inputs": [],
      "name": "totalBalance",
      "outputs": [
        {
          "internalType": "uint256",
          "name": "",
          "type": "uint256"
        }
      ],
      "stateMutability": "view",
      "type": "function"
    },
    {
      "stateMutability": "payable",
      "type": "receive"
    }
  ],
  "bytecode": "0x608060405234801561001057600080fd5b506040516108a93803806108a983398101604081905261002f91610052565b600080546001600160a01b03191633178155600192909255600255600455610076565b6000806040838503121561006557600080fd5b505080516020909101519092909150565b610824806100856000396000f3fe6080604052600436106100955760003560e01c80638da5cb5b116100595780638da5cb5b146101a35780639b2cb5d8146101db578063ad7a672f146101f1578063d0e30db014610207578063db2e21bc1461020f57600080fd5b80630952897b146100ed5780634e71d92d1461010f5780635f48f393146101245780636de562711461014d57806373b2e80e1461016357600080fd5b366100e85734600360008282546100ac9190610711565b909155505060405134815233907fe1fffcc4923d04b559f4d29a8bfc6cda04eb5b0d3c460751c2402c5c5cc9109c9060200160405180910390a2005b600080fd5b3480156100f957600080fd5b5061010d61010836600461072a565b610224565b005b34801561011b57600080fd5b5061010d6102ea565b34801561013057600080fd5b5061013a60025481565b6040519081526020015b60405180910390f35b34801561015957600080fd5b5061013a60045481565b34801561016f57600080fd5b5061019361017e36600461074c565b60056020526000908152604090205460ff1681565b6040519015158152602001610144565b3480156101af57600080fd5b506000546101c3906001600160a01b031681565b6040516001600160a01b039091168152602001610144565b3480156101e757600080fd5b5061013a60015481565b3480156101fd57600080fd5b5061013a60035481565b61010d610482565b34801561021b57600080fd5b5061010d61053a565b6000546001600160a01b031633146102575760405162461bcd60e51b815260040161024e9061077c565b60405180910390fd5b60008211801561026657508181115b6102a25760405162461bcd60e51b815260206004820152600d60248201526c496e76616c69642072616e676560981b604482015260640161024e565b6001829055600281905560408051838152602081018390527f0936b3616d5072fa8f7381ef8e7c35d39bed9ecfb2184e908a56027ad5c0b6bc91015b60405180910390a15050565b3360009081526005602052604090205460ff161561033c5760405162461bcd60e51b815260206004820152600f60248201526e105b1c9958591e4818db185a5b5959608a1b604482015260640161024e565b60015447101561037b5760405162461bcd60e51b815260206004820152600a6024820152694e6f2062616c616e636560b01b604482015260640161024e565b6000610385610664565b9050478111156103925750475b336000908152600560205260408120805460ff1916600117905560048054916103ba836107a0565b9091555050604051600090339083908381818185875af1925050503d8060008114610401576040519150601f19603f3d011682016040523d82523d6000602084013e610406565b606091505b50509050806104495760405162461bcd60e51b815260206004820152600f60248201526e151c985b9cd9995c8819985a5b1959608a1b604482015260640161024e565b60405182815233907f47cee97cb7acd717b3c0aa1435d004cd5b3c8c57d70dbceb4e4458bbd60e39d49060200160405180910390a25050565b6000546001600160a01b031633146104ac5760405162461bcd60e51b815260040161024e9061077c565b600034116104ec5760405162461bcd60e51b815260206004820152600d60248201526c26bab9ba1039b2b7321026a7a760991b604482015260640161024e565b34600360008282546104fe9190610711565b909155505060405134815233907fe1fffcc4923d04b559f4d29a8bfc6cda04eb5b0d3c460751c2402c5c5cc9109c9060200160405180910390a2565b6000546001600160a01b031633146105645760405162461bcd60e51b815260040161024e9061077c565b478061059f5760405162461bcd60e51b815260206004820152600a6024820152694e6f2062616c616e636560b01b604482015260640161024e565b600080546040516001600160a01b039091169083908381818185875af1925050503d80600081146105ec576040519150601f19603f3d011682016040523d82523d6000602084013e6105f1565b606091505b50509050806106345760405162461bcd60e51b815260206004820152600f60248201526e151c985b9cd9995c8819985a5b1959608a1b604482015260640161024e565b6040518281527f99d7f8b71cfb9126984f7a5eed3a40e64a8959e9b0e442221546fb04ec6a489c906020016102de565b6000804244336004546040516020016106a89493929190938452602084019290925260601b6bffffffffffffffffffffffff19166040830152605482015260740190565b6040516020818303038152906040528051906020012060001c90506001546002546106d391906107b9565b6106de906001610711565b6106e890826107cc565b6001546106f59190610711565b91505090565b634e487b7160e01b600052601160045260246000fd5b80820180821115610724576107246106fb565b92915050565b6000806040838503121561073d57600080fd5b50508035926020909101359150565b60006020828403121561075e57600080fd5b81356001600160a01b038116811461077557600080fd5b9392505050565b6020808252600a908201526927b7363c9037bbb732b960b11b604082015260600190565b6000600182016107b2576107b26106fb565b5060010190565b81810381811115610724576107246106fb565b6000826107e957634e487b7160e01b600052601260045260246000fd5b50069056fea26469706673582212208b321336e8950debb067bc20f26cc338adf481396a9ea642ea6b5161b8c6fb8a64736f6c63430008130033",
  "linkReferences": {},
  "deployedLinkReferences": {}
}